{
	"Part 1/AddFiveStorage.sol": {
		"AddFiveStorage": {
			"abi": [
				{
					"inputs": [
						{
							"internalType": "string",
							"name": "_name",
							"type": "string"
						},
						{
							"internalType": "uint256",
							"name": "_favouriteNumber",
							"type": "uint256"
						}
					],
					"name": "addPerson",
					"outputs": [],
					"stateMutability": "nonpayable",
					"type": "function"
				},
				{
					"inputs": [
						{
							"internalType": "uint256",
							"name": "",
							"type": "uint256"
						}
					],
					"name": "listOfPeople",
					"outputs": [
						{
							"internalType": "uint256",
							"name": "favouriteNumber",
							"type": "uint256"
						},
						{
							"internalType": "string",
							"name": "name",
							"type": "string"
						}
					],
					"stateMutability": "view",
					"type": "function"
				},
				{
					"inputs": [],
					"name": "myFavourtieNumber",
					"outputs": [
						{
							"internalType": "uint256",
							"name": "",
							"type": "uint256"
						}
					],
					"stateMutability": "view",
					"type": "function"
				},
				{
					"inputs": [
						{
							"internalType": "string",
							"name": "",
							"type": "string"
						}
					],
					"name": "nameToFavouriteNumber",
					"outputs": [
						{
							"internalType": "uint256",
							"name": "",
							"type": "uint256"
						}
					],
					"stateMutability": "view",
					"type": "function"
				},
				{
					"inputs": [],
					"name": "retrieve",
					"outputs": [
						{
							"internalType": "uint256",
							"name": "",
							"type": "uint256"
						}
					],
					"stateMutability": "view",
					"type": "function"
				},
				{
					"inputs": [],
					"name": "sayHello",
					"outputs": [
						{
							"internalType": "string",
							"name": "",
							"type": "string"
						}
					],
					"stateMutability": "pure",
					"type": "function"
				},
				{
					"inputs": [
						{
							"internalType": "uint256",
							"name": "_newNumber",
							"type": "uint256"
						}
					],
					"name": "store",
					"outputs": [],
					"stateMutability": "nonpayable",
					"type": "function"
				}
			],
			"devdoc": {
				"kind": "dev",
				"methods": {},
				"version": 1
			},
			"evm": {
				"assembly": "    /* \"Part 1/AddFiveStorage.sol\":168:420  contract AddFiveStorage is SimpleStorage {... */\n  mstore(0x40, 0x80)\n  callvalue\n  dup1\n  iszero\n  tag_1\n  jumpi\n  0x00\n  dup1\n  revert\ntag_1:\n  pop\n  dataSize(sub_0)\n  dup1\n  dataOffset(sub_0)\n  0x00\n  codecopy\n  0x00\n  return\nstop\n\nsub_0: assembly {\n        /* \"Part 1/AddFiveStorage.sol\":168:420  contract AddFiveStorage is SimpleStorage {... */\n      mstore(0x40, 0x80)\n      callvalue\n      dup1\n      iszero\n      tag_1\n      jumpi\n      0x00\n      dup1\n      revert\n    tag_1:\n      pop\n      jumpi(tag_2, lt(calldatasize, 0x04))\n      shr(0xe0, calldataload(0x00))\n      dup1\n      0x6057361d\n      gt\n      tag_10\n      jumpi\n      dup1\n      0x6057361d\n      eq\n      tag_6\n      jumpi\n      dup1\n      0x6f760f41\n      eq\n      tag_7\n      jumpi\n      dup1\n      0xb2ac62ef\n      eq\n      tag_8\n      jumpi\n      dup1\n      0xef5fb05b\n      eq\n      tag_9\n      jumpi\n      jump(tag_2)\n    tag_10:\n      dup1\n      0x07b616f0\n      eq\n      tag_3\n      jumpi\n      dup1\n      0x2e64cec1\n      eq\n      tag_4\n      jumpi\n      dup1\n      0x2ebce631\n      eq\n      tag_5\n      jumpi\n    tag_2:\n      0x00\n      dup1\n      revert\n        /* \"Part 1/SimpleStorage.sol\":95:127  uint256 public myFavourtieNumber */\n    tag_3:\n      tag_11\n      tag_12\n      jump\t// in\n    tag_11:\n      mload(0x40)\n      tag_13\n      swap2\n      swap1\n      tag_14\n      jump\t// in\n    tag_13:\n      mload(0x40)\n      dup1\n      swap2\n      sub\n      swap1\n      return\n        /* \"Part 1/SimpleStorage.sol\":586:678  function retrieve() public view returns(uint256) {... */\n    tag_4:\n      tag_15\n      tag_16\n      jump\t// in\n    tag_15:\n      mload(0x40)\n      tag_17\n      swap2\n      swap1\n      tag_14\n      jump\t// in\n    tag_17:\n      mload(0x40)\n      dup1\n      swap2\n      sub\n      swap1\n      return\n        /* \"Part 1/SimpleStorage.sol\":332:360  Person[] public listOfPeople */\n    tag_5:\n      tag_18\n      0x04\n      dup1\n      calldatasize\n      sub\n      dup2\n      add\n      swap1\n      tag_19\n      swap2\n      swap1\n      tag_20\n      jump\t// in\n    tag_19:\n      tag_21\n      jump\t// in\n    tag_18:\n      mload(0x40)\n      tag_22\n      swap3\n      swap2\n      swap1\n      tag_23\n      jump\t// in\n    tag_22:\n      mload(0x40)\n      dup1\n      swap2\n      sub\n      swap1\n      return\n        /* \"Part 1/AddFiveStorage.sol\":312:417  function store(uint256 _newNumber) public override {... */\n    tag_6:\n      tag_24\n      0x04\n      dup1\n      calldatasize\n      sub\n      dup2\n      add\n      swap1\n      tag_25\n      swap2\n      swap1\n      tag_20\n      jump\t// in\n    tag_25:\n      tag_26\n      jump\t// in\n    tag_24:\n      stop\n        /* \"Part 1/SimpleStorage.sol\":686:883  function addPerson(string memory _name, uint256 _favouriteNumber) public {... */\n    tag_7:\n      tag_27\n      0x04\n      dup1\n      calldatasize\n      sub\n      dup2\n      add\n      swap1\n      tag_28\n      swap2\n      swap1\n      tag_29\n      jump\t// in\n    tag_28:\n      tag_30\n      jump\t// in\n    tag_27:\n      stop\n        /* \"Part 1/SimpleStorage.sol\":402:457  mapping(string => uint256) public nameToFavouriteNumber */\n    tag_8:\n      tag_31\n      0x04\n      dup1\n      calldatasize\n      sub\n      dup2\n      add\n      swap1\n      tag_32\n      swap2\n      swap1\n      tag_33\n      jump\t// in\n    tag_32:\n      tag_34\n      jump\t// in\n    tag_31:\n      mload(0x40)\n      tag_35\n      swap2\n      swap1\n      tag_14\n      jump\t// in\n    tag_35:\n      mload(0x40)\n      dup1\n      swap2\n      sub\n      swap1\n      return\n        /* \"Part 1/AddFiveStorage.sol\":216:304  function sayHello() public pure returns(string memory) {... */\n    tag_9:\n      tag_36\n      tag_37\n      jump\t// in\n    tag_36:\n      mload(0x40)\n      tag_38\n      swap2\n      swap1\n      tag_39\n      jump\t// in\n    tag_38:\n      mload(0x40)\n      dup1\n      swap2\n      sub\n      swap1\n      return\n        /* \"Part 1/SimpleStorage.sol\":95:127  uint256 public myFavourtieNumber */\n    tag_12:\n      sload(0x00)\n      dup2\n      jump\t// out\n        /* \"Part 1/SimpleStorage.sol\":586:678  function retrieve() public view returns(uint256) {... */\n    tag_16:\n        /* \"Part 1/SimpleStorage.sol\":626:633  uint256 */\n      0x00\n        /* \"Part 1/SimpleStorage.sol\":653:670  myFavourtieNumber */\n      dup1\n      sload\n        /* \"Part 1/SimpleStorage.sol\":646:670  return myFavourtieNumber */\n      swap1\n      pop\n        /* \"Part 1/SimpleStorage.sol\":586:678  function retrieve() public view returns(uint256) {... */\n      swap1\n      jump\t// out\n        /* \"Part 1/SimpleStorage.sol\":332:360  Person[] public listOfPeople */\n    tag_21:\n      0x01\n      dup2\n      dup2\n      sload\n      dup2\n      lt\n      tag_41\n      jumpi\n      0x00\n      dup1\n      revert\n    tag_41:\n      swap1\n      0x00\n      mstore\n      keccak256(0x00, 0x20)\n      swap1\n      0x02\n      mul\n      add\n      0x00\n      swap2\n      pop\n      swap1\n      pop\n      dup1\n      0x00\n      add\n      sload\n      swap1\n      dup1\n      0x01\n      add\n      dup1\n      sload\n      tag_43\n      swap1\n      tag_44\n      jump\t// in\n    tag_43:\n      dup1\n      0x1f\n      add\n      0x20\n      dup1\n      swap2\n      div\n      mul\n      0x20\n      add\n      mload(0x40)\n      swap1\n      dup2\n      add\n      0x40\n      mstore\n      dup1\n      swap3\n      swap2\n      swap1\n      dup2\n      dup2\n      mstore\n      0x20\n      add\n      dup3\n      dup1\n      sload\n      tag_45\n      swap1\n      tag_44\n      jump\t// in\n    tag_45:\n      dup1\n      iszero\n      tag_46\n      jumpi\n      dup1\n      0x1f\n      lt\n      tag_47\n      jumpi\n      0x0100\n      dup1\n      dup4\n      sload\n      div\n      mul\n      dup4\n      mstore\n      swap2\n      0x20\n      add\n      swap2\n      jump(tag_46)\n    tag_47:\n      dup3\n      add\n      swap2\n      swap1\n      0x00\n      mstore\n      keccak256(0x00, 0x20)\n      swap1\n    tag_48:\n      dup2\n      sload\n      dup2\n      mstore\n      swap1\n      0x01\n      add\n      swap1\n      0x20\n      add\n      dup1\n      dup4\n      gt\n      tag_48\n      jumpi\n      dup3\n      swap1\n      sub\n      0x1f\n      and\n      dup3\n      add\n      swap2\n    tag_46:\n      pop\n      pop\n      pop\n      pop\n      pop\n      swap1\n      pop\n      dup3\n      jump\t// out\n        /* \"Part 1/AddFiveStorage.sol\":312:417  function store(uint256 _newNumber) public override {... */\n    tag_26:\n        /* \"Part 1/AddFiveStorage.sol\":407:408  5 */\n      0x05\n        /* \"Part 1/AddFiveStorage.sol\":394:404  _newNumber */\n      dup2\n        /* \"Part 1/AddFiveStorage.sol\":394:408  _newNumber + 5 */\n      tag_50\n      swap2\n      swap1\n      tag_51\n      jump\t// in\n    tag_50:\n        /* \"Part 1/AddFiveStorage.sol\":374:391  myFavourtieNumber */\n      0x00\n        /* \"Part 1/AddFiveStorage.sol\":374:408  myFavourtieNumber = _newNumber + 5 */\n      dup2\n      swap1\n      sstore\n      pop\n        /* \"Part 1/AddFiveStorage.sol\":312:417  function store(uint256 _newNumber) public override {... */\n      pop\n      jump\t// out\n        /* \"Part 1/SimpleStorage.sol\":686:883  function addPerson(string memory _name, uint256 _favouriteNumber) public {... */\n    tag_30:\n        /* \"Part 1/SimpleStorage.sol\":770:782  listOfPeople */\n      0x01\n        /* \"Part 1/SimpleStorage.sol\":788:818  Person(_favouriteNumber,_name) */\n      mload(0x40)\n      dup1\n      0x40\n      add\n      0x40\n      mstore\n      dup1\n        /* \"Part 1/SimpleStorage.sol\":795:811  _favouriteNumber */\n      dup4\n        /* \"Part 1/SimpleStorage.sol\":788:818  Person(_favouriteNumber,_name) */\n      dup2\n      mstore\n      0x20\n      add\n        /* \"Part 1/SimpleStorage.sol\":812:817  _name */\n      dup5\n        /* \"Part 1/SimpleStorage.sol\":788:818  Person(_favouriteNumber,_name) */\n      dup2\n      mstore\n      pop\n        /* \"Part 1/SimpleStorage.sol\":770:819  listOfPeople.push(Person(_favouriteNumber,_name)) */\n      swap1\n      dup1\n      0x01\n      dup2\n      sload\n      add\n      dup1\n      dup3\n      sstore\n      dup1\n      swap2\n      pop\n      pop\n      0x01\n      swap1\n      sub\n      swap1\n      0x00\n      mstore\n      keccak256(0x00, 0x20)\n      swap1\n      0x02\n      mul\n      add\n      0x00\n      swap1\n      swap2\n      swap1\n      swap2\n      swap1\n      swap2\n      pop\n      0x00\n      dup3\n      add\n      mload\n      dup2\n      0x00\n      add\n      sstore\n      0x20\n      dup3\n      add\n      mload\n      dup2\n      0x01\n      add\n      swap1\n      dup2\n      tag_54\n      swap2\n      swap1\n      tag_55\n      jump\t// in\n    tag_54:\n      pop\n      pop\n      pop\n        /* \"Part 1/SimpleStorage.sol\":859:875  _favouriteNumber */\n      dup1\n        /* \"Part 1/SimpleStorage.sol\":830:851  nameToFavouriteNumber */\n      0x02\n        /* \"Part 1/SimpleStorage.sol\":852:857  _name */\n      dup4\n        /* \"Part 1/SimpleStorage.sol\":830:858  nameToFavouriteNumber[_name] */\n      mload(0x40)\n      tag_56\n      swap2\n      swap1\n      tag_57\n      jump\t// in\n    tag_56:\n      swap1\n      dup2\n      mstore\n      0x20\n      add\n      mload(0x40)\n      dup1\n      swap2\n      sub\n      swap1\n      keccak256\n        /* \"Part 1/SimpleStorage.sol\":830:875  nameToFavouriteNumber[_name]=_favouriteNumber */\n      dup2\n      swap1\n      sstore\n      pop\n        /* \"Part 1/SimpleStorage.sol\":686:883  function addPerson(string memory _name, uint256 _favouriteNumber) public {... */\n      pop\n      pop\n      jump\t// out\n        /* \"Part 1/SimpleStorage.sol\":402:457  mapping(string => uint256) public nameToFavouriteNumber */\n    tag_34:\n      0x02\n      dup2\n      dup1\n      mload\n      0x20\n      dup2\n      add\n      dup3\n      add\n      dup1\n      mload\n      dup5\n      dup3\n      mstore\n      0x20\n      dup4\n      add\n      0x20\n      dup6\n      add\n      keccak256\n      dup2\n      dup4\n      mstore\n      dup1\n      swap6\n      pop\n      pop\n      pop\n      pop\n      pop\n      pop\n      0x00\n      swap2\n      pop\n      swap1\n      pop\n      sload\n      dup2\n      jump\t// out\n        /* \"Part 1/AddFiveStorage.sol\":216:304  function sayHello() public pure returns(string memory) {... */\n    tag_37:\n        /* \"Part 1/AddFiveStorage.sol\":256:269  string memory */\n      0x60\n        /* \"Part 1/AddFiveStorage.sol\":282:296  return \"Hello\" */\n      mload(0x40)\n      dup1\n      0x40\n      add\n      0x40\n      mstore\n      dup1\n      0x05\n      dup2\n      mstore\n      0x20\n      add\n      0x48656c6c6f000000000000000000000000000000000000000000000000000000\n      dup2\n      mstore\n      pop\n      swap1\n      pop\n        /* \"Part 1/AddFiveStorage.sol\":216:304  function sayHello() public pure returns(string memory) {... */\n      swap1\n      jump\t// out\n        /* \"#utility.yul\":7:84   */\n    tag_59:\n        /* \"#utility.yul\":44:51   */\n      0x00\n        /* \"#utility.yul\":73:78   */\n      dup2\n        /* \"#utility.yul\":62:78   */\n      swap1\n      pop\n        /* \"#utility.yul\":7:84   */\n      swap2\n      swap1\n      pop\n      jump\t// out\n        /* \"#utility.yul\":90:208   */\n    tag_60:\n        /* \"#utility.yul\":177:201   */\n      tag_102\n        /* \"#utility.yul\":195:200   */\n      dup2\n        /* \"#utility.yul\":177:201   */\n      tag_59\n      jump\t// in\n    tag_102:\n        /* \"#utility.yul\":172:175   */\n      dup3\n        /* \"#utility.yul\":165:202   */\n      mstore\n        /* \"#utility.yul\":90:208   */\n      pop\n      pop\n      jump\t// out\n        /* \"#utility.yul\":214:436   */\n    tag_14:\n        /* \"#utility.yul\":307:311   */\n      0x00\n        /* \"#utility.yul\":345:347   */\n      0x20\n        /* \"#utility.yul\":334:343   */\n      dup3\n        /* \"#utility.yul\":330:348   */\n      add\n        /* \"#utility.yul\":322:348   */\n      swap1\n      pop\n        /* \"#utility.yul\":358:429   */\n      tag_104\n        /* \"#utility.yul\":426:427   */\n      0x00\n        /* \"#utility.yul\":415:424   */\n      dup4\n        /* \"#utility.yul\":411:428   */\n      add\n        /* \"#utility.yul\":402:408   */\n      dup5\n        /* \"#utility.yul\":358:429   */\n      tag_60\n      jump\t// in\n    tag_104:\n        /* \"#utility.yul\":214:436   */\n      swap3\n      swap2\n      pop\n      pop\n      jump\t// out\n        /* \"#utility.yul\":442:517   */\n    tag_61:\n        /* \"#utility.yul\":475:481   */\n      0x00\n        /* \"#utility.yul\":508:510   */\n      0x40\n        /* \"#utility.yul\":502:511   */\n      mload\n        /* \"#utility.yul\":492:511   */\n      swap1\n      pop\n        /* \"#utility.yul\":442:517   */\n      swap1\n      jump\t// out\n        /* \"#utility.yul\":523:640   */\n    tag_62:\n        /* \"#utility.yul\":632:633   */\n      0x00\n        /* \"#utility.yul\":629:630   */\n      dup1\n        /* \"#utility.yul\":622:634   */\n      revert\n        /* \"#utility.yul\":646:763   */\n    tag_63:\n        /* \"#utility.yul\":755:756   */\n      0x00\n        /* \"#utility.yul\":752:753   */\n      dup1\n        /* \"#utility.yul\":745:757   */\n      revert\n        /* \"#utility.yul\":769:891   */\n    tag_64:\n        /* \"#utility.yul\":842:866   */\n      tag_109\n        /* \"#utility.yul\":860:865   */\n      dup2\n        /* \"#utility.yul\":842:866   */\n      tag_59\n      jump\t// in\n    tag_109:\n        /* \"#utility.yul\":835:840   */\n      dup2\n        /* \"#utility.yul\":832:867   */\n      eq\n        /* \"#utility.yul\":822:885   */\n      tag_110\n      jumpi\n        /* \"#utility.yul\":881:882   */\n      0x00\n        /* \"#utility.yul\":878:879   */\n      dup1\n        /* \"#utility.yul\":871:883   */\n      revert\n        /* \"#utility.yul\":822:885   */\n    tag_110:\n        /* \"#utility.yul\":769:891   */\n      pop\n      jump\t// out\n        /* \"#utility.yul\":897:1036   */\n    tag_65:\n        /* \"#utility.yul\":943:948   */\n      0x00\n        /* \"#utility.yul\":981:987   */\n      dup2\n        /* \"#utility.yul\":968:988   */\n      calldataload\n        /* \"#utility.yul\":959:988   */\n      swap1\n      pop\n        /* \"#utility.yul\":997:1030   */\n      tag_112\n        /* \"#utility.yul\":1024:1029   */\n      dup2\n        /* \"#utility.yul\":997:1030   */\n      tag_64\n      jump\t// in\n    tag_112:\n        /* \"#utility.yul\":897:1036   */\n      swap3\n      swap2\n      pop\n      pop\n      jump\t// out\n        /* \"#utility.yul\":1042:1371   */\n    tag_20:\n        /* \"#utility.yul\":1101:1107   */\n      0x00\n        /* \"#utility.yul\":1150:1152   */\n      0x20\n        /* \"#utility.yul\":1138:1147   */\n      dup3\n        /* \"#utility.yul\":1129:1136   */\n      dup5\n        /* \"#utility.yul\":1125:1148   */\n      sub\n        /* \"#utility.yul\":1121:1153   */\n      slt\n        /* \"#utility.yul\":1118:1237   */\n      iszero\n      tag_114\n      jumpi\n        /* \"#utility.yul\":1156:1235   */\n      tag_115\n      tag_62\n      jump\t// in\n    tag_115:\n        /* \"#utility.yul\":1118:1237   */\n    tag_114:\n        /* \"#utility.yul\":1276:1277   */\n      0x00\n        /* \"#utility.yul\":1301:1354   */\n      tag_116\n        /* \"#utility.yul\":1346:1353   */\n      dup5\n        /* \"#utility.yul\":1337:1343   */\n      dup3\n        /* \"#utility.yul\":1326:1335   */\n      dup6\n        /* \"#utility.yul\":1322:1344   */\n      add\n        /* \"#utility.yul\":1301:1354   */\n      tag_65\n      jump\t// in\n    tag_116:\n        /* \"#utility.yul\":1291:1354   */\n      swap2\n      pop\n        /* \"#utility.yul\":1247:1364   */\n      pop\n        /* \"#utility.yul\":1042:1371   */\n      swap3\n      swap2\n      pop\n      pop\n      jump\t// out\n        /* \"#utility.yul\":1377:1476   */\n    tag_66:\n        /* \"#utility.yul\":1429:1435   */\n      0x00\n        /* \"#utility.yul\":1463:1468   */\n      dup2\n        /* \"#utility.yul\":1457:1469   */\n      mload\n        /* \"#utility.yul\":1447:1469   */\n      swap1\n      pop\n        /* \"#utility.yul\":1377:1476   */\n      swap2\n      swap1\n      pop\n      jump\t// out\n        /* \"#utility.yul\":1482:1651   */\n    tag_67:\n        /* \"#utility.yul\":1566:1577   */\n      0x00\n        /* \"#utility.yul\":1600:1606   */\n      dup3\n        /* \"#utility.yul\":1595:1598   */\n      dup3\n        /* \"#utility.yul\":1588:1607   */\n      mstore\n        /* \"#utility.yul\":1640:1644   */\n      0x20\n        /* \"#utility.yul\":1635:1638   */\n      dup3\n        /* \"#utility.yul\":1631:1645   */\n      add\n        /* \"#utility.yul\":1616:1645   */\n      swap1\n      pop\n        /* \"#utility.yul\":1482:1651   */\n      swap3\n      swap2\n      pop\n      pop\n      jump\t// out\n        /* \"#utility.yul\":1657:1903   */\n    tag_68:\n        /* \"#utility.yul\":1738:1739   */\n      0x00\n        /* \"#utility.yul\":1748:1861   */\n    tag_120:\n        /* \"#utility.yul\":1762:1768   */\n      dup4\n        /* \"#utility.yul\":1759:1760   */\n      dup2\n        /* \"#utility.yul\":1756:1769   */\n      lt\n        /* \"#utility.yul\":1748:1861   */\n      iszero\n      tag_122\n      jumpi\n        /* \"#utility.yul\":1847:1848   */\n      dup1\n        /* \"#utility.yul\":1842:1845   */\n      dup3\n        /* \"#utility.yul\":1838:1849   */\n      add\n        /* \"#utility.yul\":1832:1850   */\n      mload\n        /* \"#utility.yul\":1828:1829   */\n      dup2\n        /* \"#utility.yul\":1823:1826   */\n      dup5\n        /* \"#utility.yul\":1819:1830   */\n      add\n        /* \"#utility.yul\":1812:1851   */\n      mstore\n        /* \"#utility.yul\":1784:1786   */\n      0x20\n        /* \"#utility.yul\":1781:1782   */\n      dup2\n        /* \"#utility.yul\":1777:1787   */\n      add\n        /* \"#utility.yul\":1772:1787   */\n      swap1\n      pop\n        /* \"#utility.yul\":1748:1861   */\n      jump(tag_120)\n    tag_122:\n        /* \"#utility.yul\":1895:1896   */\n      0x00\n        /* \"#utility.yul\":1886:1892   */\n      dup5\n        /* \"#utility.yul\":1881:1884   */\n      dup5\n        /* \"#utility.yul\":1877:1893   */\n      add\n        /* \"#utility.yul\":1870:1897   */\n      mstore\n        /* \"#utility.yul\":1719:1903   */\n      pop\n        /* \"#utility.yul\":1657:1903   */\n      pop\n      pop\n      pop\n      jump\t// out\n        /* \"#utility.yul\":1909:2011   */\n    tag_69:\n        /* \"#utility.yul\":1950:1956   */\n      0x00\n        /* \"#utility.yul\":2001:2003   */\n      0x1f\n        /* \"#utility.yul\":1997:2004   */\n      not\n        /* \"#utility.yul\":1992:1994   */\n      0x1f\n        /* \"#utility.yul\":1985:1990   */\n      dup4\n        /* \"#utility.yul\":1981:1995   */\n      add\n        /* \"#utility.yul\":1977:2005   */\n      and\n        /* \"#utility.yul\":1967:2005   */\n      swap1\n      pop\n        /* \"#utility.yul\":1909:2011   */\n      swap2\n      swap1\n      pop\n      jump\t// out\n        /* \"#utility.yul\":2017:2394   */\n    tag_70:\n        /* \"#utility.yul\":2105:2108   */\n      0x00\n        /* \"#utility.yul\":2133:2172   */\n      tag_125\n        /* \"#utility.yul\":2166:2171   */\n      dup3\n        /* \"#utility.yul\":2133:2172   */\n      tag_66\n      jump\t// in\n    tag_125:\n        /* \"#utility.yul\":2188:2259   */\n      tag_126\n        /* \"#utility.yul\":2252:2258   */\n      dup2\n        /* \"#utility.yul\":2247:2250   */\n      dup6\n        /* \"#utility.yul\":2188:2259   */\n      tag_67\n      jump\t// in\n    tag_126:\n        /* \"#utility.yul\":2181:2259   */\n      swap4\n      pop\n        /* \"#utility.yul\":2268:2333   */\n      tag_127\n        /* \"#utility.yul\":2326:2332   */\n      dup2\n        /* \"#utility.yul\":2321:2324   */\n      dup6\n        /* \"#utility.yul\":2314:2318   */\n      0x20\n        /* \"#utility.yul\":2307:2312   */\n      dup7\n        /* \"#utility.yul\":2303:2319   */\n      add\n        /* \"#utility.yul\":2268:2333   */\n      tag_68\n      jump\t// in\n    tag_127:\n        /* \"#utility.yul\":2358:2387   */\n      tag_128\n        /* \"#utility.yul\":2380:2386   */\n      dup2\n        /* \"#utility.yul\":2358:2387   */\n      tag_69\n      jump\t// in\n    tag_128:\n        /* \"#utility.yul\":2353:2356   */\n      dup5\n        /* \"#utility.yul\":2349:2388   */\n      add\n        /* \"#utility.yul\":2342:2388   */\n      swap2\n      pop\n        /* \"#utility.yul\":2109:2394   */\n      pop\n        /* \"#utility.yul\":2017:2394   */\n      swap3\n      swap2\n      pop\n      pop\n      jump\t// out\n        /* \"#utility.yul\":2400:2823   */\n    tag_23:\n        /* \"#utility.yul\":2541:2545   */\n      0x00\n        /* \"#utility.yul\":2579:2581   */\n      0x40\n        /* \"#utility.yul\":2568:2577   */\n      dup3\n        /* \"#utility.yul\":2564:2582   */\n      add\n        /* \"#utility.yul\":2556:2582   */\n      swap1\n      pop\n        /* \"#utility.yul\":2592:2663   */\n      tag_130\n        /* \"#utility.yul\":2660:2661   */\n      0x00\n        /* \"#utility.yul\":2649:2658   */\n      dup4\n        /* \"#utility.yul\":2645:2662   */\n      add\n        /* \"#utility.yul\":2636:2642   */\n      dup6\n        /* \"#utility.yul\":2592:2663   */\n      tag_60\n      jump\t// in\n    tag_130:\n        /* \"#utility.yul\":2710:2719   */\n      dup2\n        /* \"#utility.yul\":2704:2708   */\n      dup2\n        /* \"#utility.yul\":2700:2720   */\n      sub\n        /* \"#utility.yul\":2695:2697   */\n      0x20\n        /* \"#utility.yul\":2684:2693   */\n      dup4\n        /* \"#utility.yul\":2680:2698   */\n      add\n        /* \"#utility.yul\":2673:2721   */\n      mstore\n        /* \"#utility.yul\":2738:2816   */\n      tag_131\n        /* \"#utility.yul\":2811:2815   */\n      dup2\n        /* \"#utility.yul\":2802:2808   */\n      dup5\n        /* \"#utility.yul\":2738:2816   */\n      tag_70\n      jump\t// in\n    tag_131:\n        /* \"#utility.yul\":2730:2816   */\n      swap1\n      pop\n        /* \"#utility.yul\":2400:2823   */\n      swap4\n      swap3\n      pop\n      pop\n      pop\n      jump\t// out\n        /* \"#utility.yul\":2829:2946   */\n    tag_71:\n        /* \"#utility.yul\":2938:2939   */\n      0x00\n        /* \"#utility.yul\":2935:2936   */\n      dup1\n        /* \"#utility.yul\":2928:2940   */\n      revert\n        /* \"#utility.yul\":2952:3069   */\n    tag_72:\n        /* \"#utility.yul\":3061:3062   */\n      0x00\n        /* \"#utility.yul\":3058:3059   */\n      dup1\n        /* \"#utility.yul\":3051:3063   */\n      revert\n        /* \"#utility.yul\":3075:3255   */\n    tag_73:\n        /* \"#utility.yul\":3123:3200   */\n      0x4e487b7100000000000000000000000000000000000000000000000000000000\n        /* \"#utility.yul\":3120:3121   */\n      0x00\n        /* \"#utility.yul\":3113:3201   */\n      mstore\n        /* \"#utility.yul\":3220:3224   */\n      0x41\n        /* \"#utility.yul\":3217:3218   */\n      0x04\n        /* \"#utility.yul\":3210:3225   */\n      mstore\n        /* \"#utility.yul\":3244:3248   */\n      0x24\n        /* \"#utility.yul\":3241:3242   */\n      0x00\n        /* \"#utility.yul\":3234:3249   */\n      revert\n        /* \"#utility.yul\":3261:3542   */\n    tag_74:\n        /* \"#utility.yul\":3344:3371   */\n      tag_136\n        /* \"#utility.yul\":3366:3370   */\n      dup3\n        /* \"#utility.yul\":3344:3371   */\n      tag_69\n      jump\t// in\n    tag_136:\n        /* \"#utility.yul\":3336:3342   */\n      dup2\n        /* \"#utility.yul\":3332:3372   */\n      add\n        /* \"#utility.yul\":3474:3480   */\n      dup2\n        /* \"#utility.yul\":3462:3472   */\n      dup2\n        /* \"#utility.yul\":3459:3481   */\n      lt\n        /* \"#utility.yul\":3438:3456   */\n      0xffffffffffffffff\n        /* \"#utility.yul\":3426:3436   */\n      dup3\n        /* \"#utility.yul\":3423:3457   */\n      gt\n        /* \"#utility.yul\":3420:3482   */\n      or\n        /* \"#utility.yul\":3417:3505   */\n      iszero\n      tag_137\n      jumpi\n        /* \"#utility.yul\":3485:3503   */\n      tag_138\n      tag_73\n      jump\t// in\n    tag_138:\n        /* \"#utility.yul\":3417:3505   */\n    tag_137:\n        /* \"#utility.yul\":3525:3535   */\n      dup1\n        /* \"#utility.yul\":3521:3523   */\n      0x40\n        /* \"#utility.yul\":3514:3536   */\n      mstore\n        /* \"#utility.yul\":3304:3542   */\n      pop\n        /* \"#utility.yul\":3261:3542   */\n      pop\n      pop\n      jump\t// out\n        /* \"#utility.yul\":3548:3677   */\n    tag_75:\n        /* \"#utility.yul\":3582:3588   */\n      0x00\n        /* \"#utility.yul\":3609:3629   */\n      tag_140\n      tag_61\n      jump\t// in\n    tag_140:\n        /* \"#utility.yul\":3599:3629   */\n      swap1\n      pop\n        /* \"#utility.yul\":3638:3671   */\n      tag_141\n        /* \"#utility.yul\":3666:3670   */\n      dup3\n        /* \"#utility.yul\":3658:3664   */\n      dup3\n        /* \"#utility.yul\":3638:3671   */\n      tag_74\n      jump\t// in\n    tag_141:\n        /* \"#utility.yul\":3548:3677   */\n      swap2\n      swap1\n      pop\n      jump\t// out\n        /* \"#utility.yul\":3683:3991   */\n    tag_76:\n        /* \"#utility.yul\":3745:3749   */\n      0x00\n        /* \"#utility.yul\":3835:3853   */\n      0xffffffffffffffff\n        /* \"#utility.yul\":3827:3833   */\n      dup3\n        /* \"#utility.yul\":3824:3854   */\n      gt\n        /* \"#utility.yul\":3821:3877   */\n      iszero\n      tag_143\n      jumpi\n        /* \"#utility.yul\":3857:3875   */\n      tag_144\n      tag_73\n      jump\t// in\n    tag_144:\n        /* \"#utility.yul\":3821:3877   */\n    tag_143:\n        /* \"#utility.yul\":3895:3924   */\n      tag_145\n        /* \"#utility.yul\":3917:3923   */\n      dup3\n        /* \"#utility.yul\":3895:3924   */\n      tag_69\n      jump\t// in\n    tag_145:\n        /* \"#utility.yul\":3887:3924   */\n      swap1\n      pop\n        /* \"#utility.yul\":3979:3983   */\n      0x20\n        /* \"#utility.yul\":3973:3977   */\n      dup2\n        /* \"#utility.yul\":3969:3984   */\n      add\n        /* \"#utility.yul\":3961:3984   */\n      swap1\n      pop\n        /* \"#utility.yul\":3683:3991   */\n      swap2\n      swap1\n      pop\n      jump\t// out\n        /* \"#utility.yul\":3997:4143   */\n    tag_77:\n        /* \"#utility.yul\":4094:4100   */\n      dup3\n        /* \"#utility.yul\":4089:4092   */\n      dup2\n        /* \"#utility.yul\":4084:4087   */\n      dup4\n        /* \"#utility.yul\":4071:4101   */\n      calldatacopy\n        /* \"#utility.yul\":4135:4136   */\n      0x00\n        /* \"#utility.yul\":4126:4132   */\n      dup4\n        /* \"#utility.yul\":4121:4124   */\n      dup4\n        /* \"#utility.yul\":4117:4133   */\n      add\n        /* \"#utility.yul\":4110:4137   */\n      mstore\n        /* \"#utility.yul\":3997:4143   */\n      pop\n      pop\n      pop\n      jump\t// out\n        /* \"#utility.yul\":4149:4574   */\n    tag_78:\n        /* \"#utility.yul\":4227:4232   */\n      0x00\n        /* \"#utility.yul\":4252:4318   */\n      tag_148\n        /* \"#utility.yul\":4268:4317   */\n      tag_149\n        /* \"#utility.yul\":4310:4316   */\n      dup5\n        /* \"#utility.yul\":4268:4317   */\n      tag_76\n      jump\t// in\n    tag_149:\n        /* \"#utility.yul\":4252:4318   */\n      tag_75\n      jump\t// in\n    tag_148:\n        /* \"#utility.yul\":4243:4318   */\n      swap1\n      pop\n        /* \"#utility.yul\":4341:4347   */\n      dup3\n        /* \"#utility.yul\":4334:4339   */\n      dup2\n        /* \"#utility.yul\":4327:4348   */\n      mstore\n        /* \"#utility.yul\":4379:4383   */\n      0x20\n        /* \"#utility.yul\":4372:4377   */\n      dup2\n        /* \"#utility.yul\":4368:4384   */\n      add\n        /* \"#utility.yul\":4417:4420   */\n      dup5\n        /* \"#utility.yul\":4408:4414   */\n      dup5\n        /* \"#utility.yul\":4403:4406   */\n      dup5\n        /* \"#utility.yul\":4399:4415   */\n      add\n        /* \"#utility.yul\":4396:4421   */\n      gt\n        /* \"#utility.yul\":4393:4505   */\n      iszero\n      tag_150\n      jumpi\n        /* \"#utility.yul\":4424:4503   */\n      tag_151\n      tag_72\n      jump\t// in\n    tag_151:\n        /* \"#utility.yul\":4393:4505   */\n    tag_150:\n        /* \"#utility.yul\":4514:4568   */\n      tag_152\n        /* \"#utility.yul\":4561:4567   */\n      dup5\n        /* \"#utility.yul\":4556:4559   */\n      dup3\n        /* \"#utility.yul\":4551:4554   */\n      dup6\n        /* \"#utility.yul\":4514:4568   */\n      tag_77\n      jump\t// in\n    tag_152:\n        /* \"#utility.yul\":4233:4574   */\n      pop\n        /* \"#utility.yul\":4149:4574   */\n      swap4\n      swap3\n      pop\n      pop\n      pop\n      jump\t// out\n        /* \"#utility.yul\":4594:4934   */\n    tag_79:\n        /* \"#utility.yul\":4650:4655   */\n      0x00\n        /* \"#utility.yul\":4699:4702   */\n      dup3\n        /* \"#utility.yul\":4692:4696   */\n      0x1f\n        /* \"#utility.yul\":4684:4690   */\n      dup4\n        /* \"#utility.yul\":4680:4697   */\n      add\n        /* \"#utility.yul\":4676:4703   */\n      slt\n        /* \"#utility.yul\":4666:4788   */\n      tag_154\n      jumpi\n        /* \"#utility.yul\":4707:4786   */\n      tag_155\n      tag_71\n      jump\t// in\n    tag_155:\n        /* \"#utility.yul\":4666:4788   */\n    tag_154:\n        /* \"#utility.yul\":4824:4830   */\n      dup2\n        /* \"#utility.yul\":4811:4831   */\n      calldataload\n        /* \"#utility.yul\":4849:4928   */\n      tag_156\n        /* \"#utility.yul\":4924:4927   */\n      dup5\n        /* \"#utility.yul\":4916:4922   */\n      dup3\n        /* \"#utility.yul\":4909:4913   */\n      0x20\n        /* \"#utility.yul\":4901:4907   */\n      dup7\n        /* \"#utility.yul\":4897:4914   */\n      add\n        /* \"#utility.yul\":4849:4928   */\n      tag_78\n      jump\t// in\n    tag_156:\n        /* \"#utility.yul\":4840:4928   */\n      swap2\n      pop\n        /* \"#utility.yul\":4656:4934   */\n      pop\n        /* \"#utility.yul\":4594:4934   */\n      swap3\n      swap2\n      pop\n      pop\n      jump\t// out\n        /* \"#utility.yul\":4940:5594   */\n    tag_29:\n        /* \"#utility.yul\":5018:5024   */\n      0x00\n        /* \"#utility.yul\":5026:5032   */\n      dup1\n        /* \"#utility.yul\":5075:5077   */\n      0x40\n        /* \"#utility.yul\":5063:5072   */\n      dup4\n        /* \"#utility.yul\":5054:5061   */\n      dup6\n        /* \"#utility.yul\":5050:5073   */\n      sub\n        /* \"#utility.yul\":5046:5078   */\n      slt\n        /* \"#utility.yul\":5043:5162   */\n      iszero\n      tag_158\n      jumpi\n        /* \"#utility.yul\":5081:5160   */\n      tag_159\n      tag_62\n      jump\t// in\n    tag_159:\n        /* \"#utility.yul\":5043:5162   */\n    tag_158:\n        /* \"#utility.yul\":5229:5230   */\n      0x00\n        /* \"#utility.yul\":5218:5227   */\n      dup4\n        /* \"#utility.yul\":5214:5231   */\n      add\n        /* \"#utility.yul\":5201:5232   */\n      calldataload\n        /* \"#utility.yul\":5259:5277   */\n      0xffffffffffffffff\n        /* \"#utility.yul\":5251:5257   */\n      dup2\n        /* \"#utility.yul\":5248:5278   */\n      gt\n        /* \"#utility.yul\":5245:5362   */\n      iszero\n      tag_160\n      jumpi\n        /* \"#utility.yul\":5281:5360   */\n      tag_161\n      tag_63\n      jump\t// in\n    tag_161:\n        /* \"#utility.yul\":5245:5362   */\n    tag_160:\n        /* \"#utility.yul\":5386:5449   */\n      tag_162\n        /* \"#utility.yul\":5441:5448   */\n      dup6\n        /* \"#utility.yul\":5432:5438   */\n      dup3\n        /* \"#utility.yul\":5421:5430   */\n      dup7\n        /* \"#utility.yul\":5417:5439   */\n      add\n        /* \"#utility.yul\":5386:5449   */\n      tag_79\n      jump\t// in\n    tag_162:\n        /* \"#utility.yul\":5376:5449   */\n      swap3\n      pop\n        /* \"#utility.yul\":5172:5459   */\n      pop\n        /* \"#utility.yul\":5498:5500   */\n      0x20\n        /* \"#utility.yul\":5524:5577   */\n      tag_163\n        /* \"#utility.yul\":5569:5576   */\n      dup6\n        /* \"#utility.yul\":5560:5566   */\n      dup3\n        /* \"#utility.yul\":5549:5558   */\n      dup7\n        /* \"#utility.yul\":5545:5567   */\n      add\n        /* \"#utility.yul\":5524:5577   */\n      tag_65\n      jump\t// in\n    tag_163:\n        /* \"#utility.yul\":5514:5577   */\n      swap2\n      pop\n        /* \"#utility.yul\":5469:5587   */\n      pop\n        /* \"#utility.yul\":4940:5594   */\n      swap3\n      pop\n      swap3\n      swap1\n      pop\n      jump\t// out\n        /* \"#utility.yul\":5600:6109   */\n    tag_33:\n        /* \"#utility.yul\":5669:5675   */\n      0x00\n        /* \"#utility.yul\":5718:5720   */\n      0x20\n        /* \"#utility.yul\":5706:5715   */\n      dup3\n        /* \"#utility.yul\":5697:5704   */\n      dup5\n        /* \"#utility.yul\":5693:5716   */\n      sub\n        /* \"#utility.yul\":5689:5721   */\n      slt\n        /* \"#utility.yul\":5686:5805   */\n      iszero\n      tag_165\n      jumpi\n        /* \"#utility.yul\":5724:5803   */\n      tag_166\n      tag_62\n      jump\t// in\n    tag_166:\n        /* \"#utility.yul\":5686:5805   */\n    tag_165:\n        /* \"#utility.yul\":5872:5873   */\n      0x00\n        /* \"#utility.yul\":5861:5870   */\n      dup3\n        /* \"#utility.yul\":5857:5874   */\n      add\n        /* \"#utility.yul\":5844:5875   */\n      calldataload\n        /* \"#utility.yul\":5902:5920   */\n      0xffffffffffffffff\n        /* \"#utility.yul\":5894:5900   */\n      dup2\n        /* \"#utility.yul\":5891:5921   */\n      gt\n        /* \"#utility.yul\":5888:6005   */\n      iszero\n      tag_167\n      jumpi\n        /* \"#utility.yul\":5924:6003   */\n      tag_168\n      tag_63\n      jump\t// in\n    tag_168:\n        /* \"#utility.yul\":5888:6005   */\n    tag_167:\n        /* \"#utility.yul\":6029:6092   */\n      tag_169\n        /* \"#utility.yul\":6084:6091   */\n      dup5\n        /* \"#utility.yul\":6075:6081   */\n      dup3\n        /* \"#utility.yul\":6064:6073   */\n      dup6\n        /* \"#utility.yul\":6060:6082   */\n      add\n        /* \"#utility.yul\":6029:6092   */\n      tag_79\n      jump\t// in\n    tag_169:\n        /* \"#utility.yul\":6019:6092   */\n      swap2\n      pop\n        /* \"#utility.yul\":5815:6102   */\n      pop\n        /* \"#utility.yul\":5600:6109   */\n      swap3\n      swap2\n      pop\n      pop\n      jump\t// out\n        /* \"#utility.yul\":6115:6428   */\n    tag_39:\n        /* \"#utility.yul\":6228:6232   */\n      0x00\n        /* \"#utility.yul\":6266:6268   */\n      0x20\n        /* \"#utility.yul\":6255:6264   */\n      dup3\n        /* \"#utility.yul\":6251:6269   */\n      add\n        /* \"#utility.yul\":6243:6269   */\n      swap1\n      pop\n        /* \"#utility.yul\":6315:6324   */\n      dup2\n        /* \"#utility.yul\":6309:6313   */\n      dup2\n        /* \"#utility.yul\":6305:6325   */\n      sub\n        /* \"#utility.yul\":6301:6302   */\n      0x00\n        /* \"#utility.yul\":6290:6299   */\n      dup4\n        /* \"#utility.yul\":6286:6303   */\n      add\n        /* \"#utility.yul\":6279:6326   */\n      mstore\n        /* \"#utility.yul\":6343:6421   */\n      tag_171\n        /* \"#utility.yul\":6416:6420   */\n      dup2\n        /* \"#utility.yul\":6407:6413   */\n      dup5\n        /* \"#utility.yul\":6343:6421   */\n      tag_70\n      jump\t// in\n    tag_171:\n        /* \"#utility.yul\":6335:6421   */\n      swap1\n      pop\n        /* \"#utility.yul\":6115:6428   */\n      swap3\n      swap2\n      pop\n      pop\n      jump\t// out\n        /* \"#utility.yul\":6434:6614   */\n    tag_80:\n        /* \"#utility.yul\":6482:6559   */\n      0x4e487b7100000000000000000000000000000000000000000000000000000000\n        /* \"#utility.yul\":6479:6480   */\n      0x00\n        /* \"#utility.yul\":6472:6560   */\n      mstore\n        /* \"#utility.yul\":6579:6583   */\n      0x22\n        /* \"#utility.yul\":6576:6577   */\n      0x04\n        /* \"#utility.yul\":6569:6584   */\n      mstore\n        /* \"#utility.yul\":6603:6607   */\n      0x24\n        /* \"#utility.yul\":6600:6601   */\n      0x00\n        /* \"#utility.yul\":6593:6608   */\n      revert\n        /* \"#utility.yul\":6620:6940   */\n    tag_44:\n        /* \"#utility.yul\":6664:6670   */\n      0x00\n        /* \"#utility.yul\":6701:6702   */\n      0x02\n        /* \"#utility.yul\":6695:6699   */\n      dup3\n        /* \"#utility.yul\":6691:6703   */\n      div\n        /* \"#utility.yul\":6681:6703   */\n      swap1\n      pop\n        /* \"#utility.yul\":6748:6749   */\n      0x01\n        /* \"#utility.yul\":6742:6746   */\n      dup3\n        /* \"#utility.yul\":6738:6750   */\n      and\n        /* \"#utility.yul\":6769:6787   */\n      dup1\n        /* \"#utility.yul\":6759:6840   */\n      tag_174\n      jumpi\n        /* \"#utility.yul\":6825:6829   */\n      0x7f\n        /* \"#utility.yul\":6817:6823   */\n      dup3\n        /* \"#utility.yul\":6813:6830   */\n      and\n        /* \"#utility.yul\":6803:6830   */\n      swap2\n      pop\n        /* \"#utility.yul\":6759:6840   */\n    tag_174:\n        /* \"#utility.yul\":6887:6889   */\n      0x20\n        /* \"#utility.yul\":6879:6885   */\n      dup3\n        /* \"#utility.yul\":6876:6890   */\n      lt\n        /* \"#utility.yul\":6856:6874   */\n      dup2\n        /* \"#utility.yul\":6853:6891   */\n      sub\n        /* \"#utility.yul\":6850:6934   */\n      tag_175\n      jumpi\n        /* \"#utility.yul\":6906:6924   */\n      tag_176\n      tag_80\n      jump\t// in\n    tag_176:\n        /* \"#utility.yul\":6850:6934   */\n    tag_175:\n        /* \"#utility.yul\":6671:6940   */\n      pop\n        /* \"#utility.yul\":6620:6940   */\n      swap2\n      swap1\n      pop\n      jump\t// out\n        /* \"#utility.yul\":6946:7126   */\n    tag_81:\n        /* \"#utility.yul\":6994:7071   */\n      0x4e487b7100000000000000000000000000000000000000000000000000000000\n        /* \"#utility.yul\":6991:6992   */\n      0x00\n        /* \"#utility.yul\":6984:7072   */\n      mstore\n        /* \"#utility.yul\":7091:7095   */\n      0x11\n        /* \"#utility.yul\":7088:7089   */\n      0x04\n        /* \"#utility.yul\":7081:7096   */\n      mstore\n        /* \"#utility.yul\":7115:7119   */\n      0x24\n        /* \"#utility.yul\":7112:7113   */\n      0x00\n        /* \"#utility.yul\":7105:7120   */\n      revert\n        /* \"#utility.yul\":7132:7323   */\n    tag_51:\n        /* \"#utility.yul\":7172:7175   */\n      0x00\n        /* \"#utility.yul\":7191:7211   */\n      tag_179\n        /* \"#utility.yul\":7209:7210   */\n      dup3\n        /* \"#utility.yul\":7191:7211   */\n      tag_59\n      jump\t// in\n    tag_179:\n        /* \"#utility.yul\":7186:7211   */\n      swap2\n      pop\n        /* \"#utility.yul\":7225:7245   */\n      tag_180\n        /* \"#utility.yul\":7243:7244   */\n      dup4\n        /* \"#utility.yul\":7225:7245   */\n      tag_59\n      jump\t// in\n    tag_180:\n        /* \"#utility.yul\":7220:7245   */\n      swap3\n      pop\n        /* \"#utility.yul\":7268:7269   */\n      dup3\n        /* \"#utility.yul\":7265:7266   */\n      dup3\n        /* \"#utility.yul\":7261:7270   */\n      add\n        /* \"#utility.yul\":7254:7270   */\n      swap1\n      pop\n        /* \"#utility.yul\":7289:7292   */\n      dup1\n        /* \"#utility.yul\":7286:7287   */\n      dup3\n        /* \"#utility.yul\":7283:7293   */\n      gt\n        /* \"#utility.yul\":7280:7316   */\n      iszero\n      tag_181\n      jumpi\n        /* \"#utility.yul\":7296:7314   */\n      tag_182\n      tag_81\n      jump\t// in\n    tag_182:\n        /* \"#utility.yul\":7280:7316   */\n    tag_181:\n        /* \"#utility.yul\":7132:7323   */\n      swap3\n      swap2\n      pop\n      pop\n      jump\t// out\n        /* \"#utility.yul\":7329:7470   */\n    tag_82:\n        /* \"#utility.yul\":7378:7382   */\n      0x00\n        /* \"#utility.yul\":7401:7404   */\n      dup2\n        /* \"#utility.yul\":7393:7404   */\n      swap1\n      pop\n        /* \"#utility.yul\":7424:7427   */\n      dup2\n        /* \"#utility.yul\":7421:7422   */\n      0x00\n        /* \"#utility.yul\":7414:7428   */\n      mstore\n        /* \"#utility.yul\":7458:7462   */\n      0x20\n        /* \"#utility.yul\":7455:7456   */\n      0x00\n        /* \"#utility.yul\":7445:7463   */\n      keccak256\n        /* \"#utility.yul\":7437:7463   */\n      swap1\n      pop\n        /* \"#utility.yul\":7329:7470   */\n      swap2\n      swap1\n      pop\n      jump\t// out\n        /* \"#utility.yul\":7476:7569   */\n    tag_83:\n        /* \"#utility.yul\":7513:7519   */\n      0x00\n        /* \"#utility.yul\":7560:7562   */\n      0x20\n        /* \"#utility.yul\":7555:7557   */\n      0x1f\n        /* \"#utility.yul\":7548:7553   */\n      dup4\n        /* \"#utility.yul\":7544:7558   */\n      add\n        /* \"#utility.yul\":7540:7563   */\n      div\n        /* \"#utility.yul\":7530:7563   */\n      swap1\n      pop\n        /* \"#utility.yul\":7476:7569   */\n      swap2\n      swap1\n      pop\n      jump\t// out\n        /* \"#utility.yul\":7575:7682   */\n    tag_84:\n        /* \"#utility.yul\":7619:7627   */\n      0x00\n        /* \"#utility.yul\":7669:7674   */\n      dup3\n        /* \"#utility.yul\":7663:7667   */\n      dup3\n        /* \"#utility.yul\":7659:7675   */\n      shl\n        /* \"#utility.yul\":7638:7675   */\n      swap1\n      pop\n        /* \"#utility.yul\":7575:7682   */\n      swap3\n      swap2\n      pop\n      pop\n      jump\t// out\n        /* \"#utility.yul\":7688:8081   */\n    tag_85:\n        /* \"#utility.yul\":7757:7763   */\n      0x00\n        /* \"#utility.yul\":7807:7808   */\n      0x08\n        /* \"#utility.yul\":7795:7805   */\n      dup4\n        /* \"#utility.yul\":7791:7809   */\n      mul\n        /* \"#utility.yul\":7830:7927   */\n      tag_187\n        /* \"#utility.yul\":7860:7926   */\n      0xffffffffffffffffffffffffffffffffffffffffffffffffffffffffffffffff\n        /* \"#utility.yul\":7849:7858   */\n      dup3\n        /* \"#utility.yul\":7830:7927   */\n      tag_84\n      jump\t// in\n    tag_187:\n        /* \"#utility.yul\":7948:7987   */\n      tag_188\n        /* \"#utility.yul\":7978:7986   */\n      dup7\n        /* \"#utility.yul\":7967:7976   */\n      dup4\n        /* \"#utility.yul\":7948:7987   */\n      tag_84\n      jump\t// in\n    tag_188:\n        /* \"#utility.yul\":7936:7987   */\n      swap6\n      pop\n        /* \"#utility.yul\":8020:8024   */\n      dup1\n        /* \"#utility.yul\":8016:8025   */\n      not\n        /* \"#utility.yul\":8009:8014   */\n      dup5\n        /* \"#utility.yul\":8005:8026   */\n      and\n        /* \"#utility.yul\":7996:8026   */\n      swap4\n      pop\n        /* \"#utility.yul\":8069:8073   */\n      dup1\n        /* \"#utility.yul\":8059:8067   */\n      dup7\n        /* \"#utility.yul\":8055:8074   */\n      and\n        /* \"#utility.yul\":8048:8053   */\n      dup5\n        /* \"#utility.yul\":8045:8075   */\n      or\n        /* \"#utility.yul\":8035:8075   */\n      swap3\n      pop\n        /* \"#utility.yul\":7764:8081   */\n      pop\n      pop\n        /* \"#utility.yul\":7688:8081   */\n      swap4\n      swap3\n      pop\n      pop\n      pop\n      jump\t// out\n        /* \"#utility.yul\":8087:8147   */\n    tag_86:\n        /* \"#utility.yul\":8115:8118   */\n      0x00\n        /* \"#utility.yul\":8136:8141   */\n      dup2\n        /* \"#utility.yul\":8129:8141   */\n      swap1\n      pop\n        /* \"#utility.yul\":8087:8147   */\n      swap2\n      swap1\n      pop\n      jump\t// out\n        /* \"#utility.yul\":8153:8295   */\n    tag_87:\n        /* \"#utility.yul\":8203:8212   */\n      0x00\n        /* \"#utility.yul\":8236:8289   */\n      tag_191\n        /* \"#utility.yul\":8254:8288   */\n      tag_192\n        /* \"#utility.yul\":8263:8287   */\n      tag_193\n        /* \"#utility.yul\":8281:8286   */\n      dup5\n        /* \"#utility.yul\":8263:8287   */\n      tag_59\n      jump\t// in\n    tag_193:\n        /* \"#utility.yul\":8254:8288   */\n      tag_86\n      jump\t// in\n    tag_192:\n        /* \"#utility.yul\":8236:8289   */\n      tag_59\n      jump\t// in\n    tag_191:\n        /* \"#utility.yul\":8223:8289   */\n      swap1\n      pop\n        /* \"#utility.yul\":8153:8295   */\n      swap2\n      swap1\n      pop\n      jump\t// out\n        /* \"#utility.yul\":8301:8376   */\n    tag_88:\n        /* \"#utility.yul\":8344:8347   */\n      0x00\n        /* \"#utility.yul\":8365:8370   */\n      dup2\n        /* \"#utility.yul\":8358:8370   */\n      swap1\n      pop\n        /* \"#utility.yul\":8301:8376   */\n      swap2\n      swap1\n      pop\n      jump\t// out\n        /* \"#utility.yul\":8382:8651   */\n    tag_89:\n        /* \"#utility.yul\":8492:8531   */\n      tag_196\n        /* \"#utility.yul\":8523:8530   */\n      dup4\n        /* \"#utility.yul\":8492:8531   */\n      tag_87\n      jump\t// in\n    tag_196:\n        /* \"#utility.yul\":8553:8644   */\n      tag_197\n        /* \"#utility.yul\":8602:8643   */\n      tag_198\n        /* \"#utility.yul\":8626:8642   */\n      dup3\n        /* \"#utility.yul\":8602:8643   */\n      tag_88\n      jump\t// in\n    tag_198:\n        /* \"#utility.yul\":8594:8600   */\n      dup5\n        /* \"#utility.yul\":8587:8591   */\n      dup5\n        /* \"#utility.yul\":8581:8592   */\n      sload\n        /* \"#utility.yul\":8553:8644   */\n      tag_85\n      jump\t// in\n    tag_197:\n        /* \"#utility.yul\":8547:8551   */\n      dup3\n        /* \"#utility.yul\":8540:8645   */\n      sstore\n        /* \"#utility.yul\":8458:8651   */\n      pop\n        /* \"#utility.yul\":8382:8651   */\n      pop\n      pop\n      pop\n      jump\t// out\n        /* \"#utility.yul\":8657:8730   */\n    tag_90:\n        /* \"#utility.yul\":8702:8705   */\n      0x00\n        /* \"#utility.yul\":8657:8730   */\n      swap1\n      jump\t// out\n        /* \"#utility.yul\":8736:8925   */\n    tag_91:\n        /* \"#utility.yul\":8813:8845   */\n      tag_201\n      tag_90\n      jump\t// in\n    tag_201:\n        /* \"#utility.yul\":8854:8919   */\n      tag_202\n        /* \"#utility.yul\":8912:8918   */\n      dup2\n        /* \"#utility.yul\":8904:8910   */\n      dup5\n        /* \"#utility.yul\":8898:8902   */\n      dup5\n        /* \"#utility.yul\":8854:8919   */\n      tag_89\n      jump\t// in\n    tag_202:\n        /* \"#utility.yul\":8789:8925   */\n      pop\n        /* \"#utility.yul\":8736:8925   */\n      pop\n      pop\n      jump\t// out\n        /* \"#utility.yul\":8931:9117   */\n    tag_92:\n        /* \"#utility.yul\":8991:9111   */\n    tag_204:\n        /* \"#utility.yul\":9008:9011   */\n      dup2\n        /* \"#utility.yul\":9001:9006   */\n      dup2\n        /* \"#utility.yul\":8998:9012   */\n      lt\n        /* \"#utility.yul\":8991:9111   */\n      iszero\n      tag_206\n      jumpi\n        /* \"#utility.yul\":9062:9101   */\n      tag_207\n        /* \"#utility.yul\":9099:9100   */\n      0x00\n        /* \"#utility.yul\":9092:9097   */\n      dup3\n        /* \"#utility.yul\":9062:9101   */\n      tag_91\n      jump\t// in\n    tag_207:\n        /* \"#utility.yul\":9035:9036   */\n      0x01\n        /* \"#utility.yul\":9028:9033   */\n      dup2\n        /* \"#utility.yul\":9024:9037   */\n      add\n        /* \"#utility.yul\":9015:9037   */\n      swap1\n      pop\n        /* \"#utility.yul\":8991:9111   */\n      jump(tag_204)\n    tag_206:\n        /* \"#utility.yul\":8931:9117   */\n      pop\n      pop\n      jump\t// out\n        /* \"#utility.yul\":9123:9666   */\n    tag_93:\n        /* \"#utility.yul\":9224:9226   */\n      0x1f\n        /* \"#utility.yul\":9219:9222   */\n      dup3\n        /* \"#utility.yul\":9216:9227   */\n      gt\n        /* \"#utility.yul\":9213:9659   */\n      iszero\n      tag_209\n      jumpi\n        /* \"#utility.yul\":9258:9296   */\n      tag_210\n        /* \"#utility.yul\":9290:9295   */\n      dup2\n        /* \"#utility.yul\":9258:9296   */\n      tag_82\n      jump\t// in\n    tag_210:\n        /* \"#utility.yul\":9342:9371   */\n      tag_211\n        /* \"#utility.yul\":9360:9370   */\n      dup5\n        /* \"#utility.yul\":9342:9371   */\n      tag_83\n      jump\t// in\n    tag_211:\n        /* \"#utility.yul\":9332:9340   */\n      dup2\n        /* \"#utility.yul\":9328:9372   */\n      add\n        /* \"#utility.yul\":9525:9527   */\n      0x20\n        /* \"#utility.yul\":9513:9523   */\n      dup6\n        /* \"#utility.yul\":9510:9528   */\n      lt\n        /* \"#utility.yul\":9507:9556   */\n      iszero\n      tag_212\n      jumpi\n        /* \"#utility.yul\":9546:9554   */\n      dup2\n        /* \"#utility.yul\":9531:9554   */\n      swap1\n      pop\n        /* \"#utility.yul\":9507:9556   */\n    tag_212:\n        /* \"#utility.yul\":9569:9649   */\n      tag_213\n        /* \"#utility.yul\":9625:9647   */\n      tag_214\n        /* \"#utility.yul\":9643:9646   */\n      dup6\n        /* \"#utility.yul\":9625:9647   */\n      tag_83\n      jump\t// in\n    tag_214:\n        /* \"#utility.yul\":9615:9623   */\n      dup4\n        /* \"#utility.yul\":9611:9648   */\n      add\n        /* \"#utility.yul\":9598:9609   */\n      dup3\n        /* \"#utility.yul\":9569:9649   */\n      tag_92\n      jump\t// in\n    tag_213:\n        /* \"#utility.yul\":9228:9659   */\n      pop\n      pop\n        /* \"#utility.yul\":9213:9659   */\n    tag_209:\n        /* \"#utility.yul\":9123:9666   */\n      pop\n      pop\n      pop\n      jump\t// out\n        /* \"#utility.yul\":9672:9789   */\n    tag_94:\n        /* \"#utility.yul\":9726:9734   */\n      0x00\n        /* \"#utility.yul\":9776:9781   */\n      dup3\n        /* \"#utility.yul\":9770:9774   */\n      dup3\n        /* \"#utility.yul\":9766:9782   */\n      shr\n        /* \"#utility.yul\":9745:9782   */\n      swap1\n      pop\n        /* \"#utility.yul\":9672:9789   */\n      swap3\n      swap2\n      pop\n      pop\n      jump\t// out\n        /* \"#utility.yul\":9795:9964   */\n    tag_95:\n        /* \"#utility.yul\":9839:9845   */\n      0x00\n        /* \"#utility.yul\":9872:9923   */\n      tag_217\n        /* \"#utility.yul\":9920:9921   */\n      0x00\n        /* \"#utility.yul\":9916:9922   */\n      not\n        /* \"#utility.yul\":9908:9913   */\n      dup5\n        /* \"#utility.yul\":9905:9906   */\n      0x08\n        /* \"#utility.yul\":9901:9914   */\n      mul\n        /* \"#utility.yul\":9872:9923   */\n      tag_94\n      jump\t// in\n    tag_217:\n        /* \"#utility.yul\":9868:9924   */\n      not\n        /* \"#utility.yul\":9953:9957   */\n      dup1\n        /* \"#utility.yul\":9947:9951   */\n      dup4\n        /* \"#utility.yul\":9943:9958   */\n      and\n        /* \"#utility.yul\":9933:9958   */\n      swap2\n      pop\n        /* \"#utility.yul\":9846:9964   */\n      pop\n        /* \"#utility.yul\":9795:9964   */\n      swap3\n      swap2\n      pop\n      pop\n      jump\t// out\n        /* \"#utility.yul\":9969:10264   */\n    tag_96:\n        /* \"#utility.yul\":10045:10049   */\n      0x00\n        /* \"#utility.yul\":10191:10220   */\n      tag_219\n        /* \"#utility.yul\":10216:10219   */\n      dup4\n        /* \"#utility.yul\":10210:10214   */\n      dup4\n        /* \"#utility.yul\":10191:10220   */\n      tag_95\n      jump\t// in\n    tag_219:\n        /* \"#utility.yul\":10183:10220   */\n      swap2\n      pop\n        /* \"#utility.yul\":10253:10256   */\n      dup3\n        /* \"#utility.yul\":10250:10251   */\n      0x02\n        /* \"#utility.yul\":10246:10257   */\n      mul\n        /* \"#utility.yul\":10240:10244   */\n      dup3\n        /* \"#utility.yul\":10237:10258   */\n      or\n        /* \"#utility.yul\":10229:10258   */\n      swap1\n      pop\n        /* \"#utility.yul\":9969:10264   */\n      swap3\n      swap2\n      pop\n      pop\n      jump\t// out\n        /* \"#utility.yul\":10269:11664   */\n    tag_55:\n        /* \"#utility.yul\":10386:10423   */\n      tag_221\n        /* \"#utility.yul\":10419:10422   */\n      dup3\n        /* \"#utility.yul\":10386:10423   */\n      tag_66\n      jump\t// in\n    tag_221:\n        /* \"#utility.yul\":10488:10506   */\n      0xffffffffffffffff\n        /* \"#utility.yul\":10480:10486   */\n      dup2\n        /* \"#utility.yul\":10477:10507   */\n      gt\n        /* \"#utility.yul\":10474:10530   */\n      iszero\n      tag_222\n      jumpi\n        /* \"#utility.yul\":10510:10528   */\n      tag_223\n      tag_73\n      jump\t// in\n    tag_223:\n        /* \"#utility.yul\":10474:10530   */\n    tag_222:\n        /* \"#utility.yul\":10554:10592   */\n      tag_224\n        /* \"#utility.yul\":10586:10590   */\n      dup3\n        /* \"#utility.yul\":10580:10591   */\n      sload\n        /* \"#utility.yul\":10554:10592   */\n      tag_44\n      jump\t// in\n    tag_224:\n        /* \"#utility.yul\":10639:10706   */\n      tag_225\n        /* \"#utility.yul\":10699:10705   */\n      dup3\n        /* \"#utility.yul\":10691:10697   */\n      dup3\n        /* \"#utility.yul\":10685:10689   */\n      dup6\n        /* \"#utility.yul\":10639:10706   */\n      tag_93\n      jump\t// in\n    tag_225:\n        /* \"#utility.yul\":10733:10734   */\n      0x00\n        /* \"#utility.yul\":10757:10761   */\n      0x20\n        /* \"#utility.yul\":10744:10761   */\n      swap1\n      pop\n        /* \"#utility.yul\":10789:10791   */\n      0x1f\n        /* \"#utility.yul\":10781:10787   */\n      dup4\n        /* \"#utility.yul\":10778:10792   */\n      gt\n        /* \"#utility.yul\":10806:10807   */\n      0x01\n        /* \"#utility.yul\":10801:11419   */\n      dup2\n      eq\n      tag_227\n      jumpi\n        /* \"#utility.yul\":11463:11464   */\n      0x00\n        /* \"#utility.yul\":11480:11486   */\n      dup5\n        /* \"#utility.yul\":11477:11554   */\n      iszero\n      tag_228\n      jumpi\n        /* \"#utility.yul\":11529:11538   */\n      dup3\n        /* \"#utility.yul\":11524:11527   */\n      dup8\n        /* \"#utility.yul\":11520:11539   */\n      add\n        /* \"#utility.yul\":11514:11540   */\n      mload\n        /* \"#utility.yul\":11505:11540   */\n      swap1\n      pop\n        /* \"#utility.yul\":11477:11554   */\n    tag_228:\n        /* \"#utility.yul\":11580:11647   */\n      tag_229\n        /* \"#utility.yul\":11640:11646   */\n      dup6\n        /* \"#utility.yul\":11633:11638   */\n      dup3\n        /* \"#utility.yul\":11580:11647   */\n      tag_96\n      jump\t// in\n    tag_229:\n        /* \"#utility.yul\":11574:11578   */\n      dup7\n        /* \"#utility.yul\":11567:11648   */\n      sstore\n        /* \"#utility.yul\":11436:11658   */\n      pop\n        /* \"#utility.yul\":10771:11658   */\n      jump(tag_226)\n        /* \"#utility.yul\":10801:11419   */\n    tag_227:\n        /* \"#utility.yul\":10853:10857   */\n      0x1f\n        /* \"#utility.yul\":10849:10858   */\n      not\n        /* \"#utility.yul\":10841:10847   */\n      dup5\n        /* \"#utility.yul\":10837:10859   */\n      and\n        /* \"#utility.yul\":10887:10924   */\n      tag_230\n        /* \"#utility.yul\":10919:10923   */\n      dup7\n        /* \"#utility.yul\":10887:10924   */\n      tag_82\n      jump\t// in\n    tag_230:\n        /* \"#utility.yul\":10946:10947   */\n      0x00\n        /* \"#utility.yul\":10960:11168   */\n    tag_231:\n        /* \"#utility.yul\":10974:10981   */\n      dup3\n        /* \"#utility.yul\":10971:10972   */\n      dup2\n        /* \"#utility.yul\":10968:10982   */\n      lt\n        /* \"#utility.yul\":10960:11168   */\n      iszero\n      tag_233\n      jumpi\n        /* \"#utility.yul\":11053:11062   */\n      dup5\n        /* \"#utility.yul\":11048:11051   */\n      dup10\n        /* \"#utility.yul\":11044:11063   */\n      add\n        /* \"#utility.yul\":11038:11064   */\n      mload\n        /* \"#utility.yul\":11030:11036   */\n      dup3\n        /* \"#utility.yul\":11023:11065   */\n      sstore\n        /* \"#utility.yul\":11104:11105   */\n      0x01\n        /* \"#utility.yul\":11096:11102   */\n      dup3\n        /* \"#utility.yul\":11092:11106   */\n      add\n        /* \"#utility.yul\":11082:11106   */\n      swap2\n      pop\n        /* \"#utility.yul\":11151:11153   */\n      0x20\n        /* \"#utility.yul\":11140:11149   */\n      dup6\n        /* \"#utility.yul\":11136:11154   */\n      add\n        /* \"#utility.yul\":11123:11154   */\n      swap5\n      pop\n        /* \"#utility.yul\":10997:11001   */\n      0x20\n        /* \"#utility.yul\":10994:10995   */\n      dup2\n        /* \"#utility.yul\":10990:11002   */\n      add\n        /* \"#utility.yul\":10985:11002   */\n      swap1\n      pop\n        /* \"#utility.yul\":10960:11168   */\n      jump(tag_231)\n    tag_233:\n        /* \"#utility.yul\":11196:11202   */\n      dup7\n        /* \"#utility.yul\":11187:11194   */\n      dup4\n        /* \"#utility.yul\":11184:11203   */\n      lt\n        /* \"#utility.yul\":11181:11360   */\n      iszero\n      tag_234\n      jumpi\n        /* \"#utility.yul\":11254:11263   */\n      dup5\n        /* \"#utility.yul\":11249:11252   */\n      dup10\n        /* \"#utility.yul\":11245:11264   */\n      add\n        /* \"#utility.yul\":11239:11265   */\n      mload\n        /* \"#utility.yul\":11297:11345   */\n      tag_235\n        /* \"#utility.yul\":11339:11343   */\n      0x1f\n        /* \"#utility.yul\":11331:11337   */\n      dup10\n        /* \"#utility.yul\":11327:11344   */\n      and\n        /* \"#utility.yul\":11316:11325   */\n      dup3\n        /* \"#utility.yul\":11297:11345   */\n      tag_95\n      jump\t// in\n    tag_235:\n        /* \"#utility.yul\":11289:11295   */\n      dup4\n        /* \"#utility.yul\":11282:11346   */\n      sstore\n        /* \"#utility.yul\":11204:11360   */\n      pop\n        /* \"#utility.yul\":11181:11360   */\n    tag_234:\n        /* \"#utility.yul\":11406:11407   */\n      0x01\n        /* \"#utility.yul\":11402:11403   */\n      0x02\n        /* \"#utility.yul\":11394:11400   */\n      dup9\n        /* \"#utility.yul\":11390:11404   */\n      mul\n        /* \"#utility.yul\":11386:11408   */\n      add\n        /* \"#utility.yul\":11380:11384   */\n      dup9\n        /* \"#utility.yul\":11373:11409   */\n      sstore\n        /* \"#utility.yul\":10808:11419   */\n      pop\n      pop\n      pop\n        /* \"#utility.yul\":10771:11658   */\n    tag_226:\n      pop\n        /* \"#utility.yul\":10361:11664   */\n      pop\n      pop\n      pop\n        /* \"#utility.yul\":10269:11664   */\n      pop\n      pop\n      jump\t// out\n        /* \"#utility.yul\":11670:11818   */\n    tag_97:\n        /* \"#utility.yul\":11772:11783   */\n      0x00\n        /* \"#utility.yul\":11809:11812   */\n      dup2\n        /* \"#utility.yul\":11794:11812   */\n      swap1\n      pop\n        /* \"#utility.yul\":11670:11818   */\n      swap3\n      swap2\n      pop\n      pop\n      jump\t// out\n        /* \"#utility.yul\":11824:12214   */\n    tag_98:\n        /* \"#utility.yul\":11930:11933   */\n      0x00\n        /* \"#utility.yul\":11958:11997   */\n      tag_238\n        /* \"#utility.yul\":11991:11996   */\n      dup3\n        /* \"#utility.yul\":11958:11997   */\n      tag_66\n      jump\t// in\n    tag_238:\n        /* \"#utility.yul\":12013:12102   */\n      tag_239\n        /* \"#utility.yul\":12095:12101   */\n      dup2\n        /* \"#utility.yul\":12090:12093   */\n      dup6\n        /* \"#utility.yul\":12013:12102   */\n      tag_97\n      jump\t// in\n    tag_239:\n        /* \"#utility.yul\":12006:12102   */\n      swap4\n      pop\n        /* \"#utility.yul\":12111:12176   */\n      tag_240\n        /* \"#utility.yul\":12169:12175   */\n      dup2\n        /* \"#utility.yul\":12164:12167   */\n      dup6\n        /* \"#utility.yul\":12157:12161   */\n      0x20\n        /* \"#utility.yul\":12150:12155   */\n      dup7\n        /* \"#utility.yul\":12146:12162   */\n      add\n        /* \"#utility.yul\":12111:12176   */\n      tag_68\n      jump\t// in\n    tag_240:\n        /* \"#utility.yul\":12201:12207   */\n      dup1\n        /* \"#utility.yul\":12196:12199   */\n      dup5\n        /* \"#utility.yul\":12192:12208   */\n      add\n        /* \"#utility.yul\":12185:12208   */\n      swap2\n      pop\n        /* \"#utility.yul\":11934:12214   */\n      pop\n        /* \"#utility.yul\":11824:12214   */\n      swap3\n      swap2\n      pop\n      pop\n      jump\t// out\n        /* \"#utility.yul\":12220:12495   */\n    tag_57:\n        /* \"#utility.yul\":12352:12355   */\n      0x00\n        /* \"#utility.yul\":12374:12469   */\n      tag_242\n        /* \"#utility.yul\":12465:12468   */\n      dup3\n        /* \"#utility.yul\":12456:12462   */\n      dup5\n        /* \"#utility.yul\":12374:12469   */\n      tag_98\n      jump\t// in\n    tag_242:\n        /* \"#utility.yul\":12367:12469   */\n      swap2\n      pop\n        /* \"#utility.yul\":12486:12489   */\n      dup2\n        /* \"#utility.yul\":12479:12489   */\n      swap1\n      pop\n        /* \"#utility.yul\":12220:12495   */\n      swap3\n      swap2\n      pop\n      pop\n      jump\t// out\n\n    auxdata: 0xa264697066735822122029ae94954c52710891568beb47a9d124ab77057d7d79c5d336c78306debc61ea64736f6c63430008130033\n}\n",
				"bytecode": {
					"linkReferences": {},
					"object": "608060405234801561001057600080fd5b50610a71806100206000396000f3fe608060405234801561001057600080fd5b506004361061007d5760003560e01c80636057361d1161005b5780636057361d146100ef5780636f760f411461010b578063b2ac62ef14610127578063ef5fb05b146101575761007d565b806307b616f0146100825780632e64cec1146100a05780632ebce631146100be575b600080fd5b61008a610175565b6040516100979190610363565b60405180910390f35b6100a861017b565b6040516100b59190610363565b60405180910390f35b6100d860048036038101906100d391906103be565b610184565b6040516100e692919061047b565b60405180910390f35b610109600480360381019061010491906103be565b610240565b005b610125600480360381019061012091906105e0565b610256565b005b610141600480360381019061013c919061063c565b6102df565b60405161014e9190610363565b60405180910390f35b61015f61030d565b60405161016c9190610685565b60405180910390f35b60005481565b60008054905090565b6001818154811061019457600080fd5b90600052602060002090600202016000915090508060000154908060010180546101bd906106d6565b80601f01602080910402602001604051908101604052809291908181526020018280546101e9906106d6565b80156102365780601f1061020b57610100808354040283529160200191610236565b820191906000526020600020905b81548152906001019060200180831161021957829003601f168201915b5050505050905082565b60058161024d9190610736565b60008190555050565b600160405180604001604052808381526020018481525090806001815401808255809150506001900390600052602060002090600202016000909190919091506000820151816000015560208201518160010190816102b59190610916565b505050806002836040516102c99190610a24565b9081526020016040518091039020819055505050565b6002818051602081018201805184825260208301602085012081835280955050505050506000915090505481565b60606040518060400160405280600581526020017f48656c6c6f000000000000000000000000000000000000000000000000000000815250905090565b6000819050919050565b61035d8161034a565b82525050565b60006020820190506103786000830184610354565b92915050565b6000604051905090565b600080fd5b600080fd5b61039b8161034a565b81146103a657600080fd5b50565b6000813590506103b881610392565b92915050565b6000602082840312156103d4576103d3610388565b5b60006103e2848285016103a9565b91505092915050565b600081519050919050565b600082825260208201905092915050565b60005b8381101561042557808201518184015260208101905061040a565b60008484015250505050565b6000601f19601f8301169050919050565b600061044d826103eb565b61045781856103f6565b9350610467818560208601610407565b61047081610431565b840191505092915050565b60006040820190506104906000830185610354565b81810360208301526104a28184610442565b90509392505050565b600080fd5b600080fd5b7f4e487b7100000000000000000000000000000000000000000000000000000000600052604160045260246000fd5b6104ed82610431565b810181811067ffffffffffffffff8211171561050c5761050b6104b5565b5b80604052505050565b600061051f61037e565b905061052b82826104e4565b919050565b600067ffffffffffffffff82111561054b5761054a6104b5565b5b61055482610431565b9050602081019050919050565b82818337600083830152505050565b600061058361057e84610530565b610515565b90508281526020810184848401111561059f5761059e6104b0565b5b6105aa848285610561565b509392505050565b600082601f8301126105c7576105c66104ab565b5b81356105d7848260208601610570565b91505092915050565b600080604083850312156105f7576105f6610388565b5b600083013567ffffffffffffffff8111156106155761061461038d565b5b610621858286016105b2565b9250506020610632858286016103a9565b9150509250929050565b60006020828403121561065257610651610388565b5b600082013567ffffffffffffffff8111156106705761066f61038d565b5b61067c848285016105b2565b91505092915050565b6000602082019050818103600083015261069f8184610442565b905092915050565b7f4e487b7100000000000000000000000000000000000000000000000000000000600052602260045260246000fd5b600060028204905060018216806106ee57607f821691505b602082108103610701576107006106a7565b5b50919050565b7f4e487b7100000000000000000000000000000000000000000000000000000000600052601160045260246000fd5b60006107418261034a565b915061074c8361034a565b925082820190508082111561076457610763610707565b5b92915050565b60008190508160005260206000209050919050565b60006020601f8301049050919050565b600082821b905092915050565b6000600883026107cc7fffffffffffffffffffffffffffffffffffffffffffffffffffffffffffffffff8261078f565b6107d6868361078f565b95508019841693508086168417925050509392505050565b6000819050919050565b600061081361080e6108098461034a565b6107ee565b61034a565b9050919050565b6000819050919050565b61082d836107f8565b6108416108398261081a565b84845461079c565b825550505050565b600090565b610856610849565b610861818484610824565b505050565b5b818110156108855761087a60008261084e565b600181019050610867565b5050565b601f8211156108ca5761089b8161076a565b6108a48461077f565b810160208510156108b3578190505b6108c76108bf8561077f565b830182610866565b50505b505050565b600082821c905092915050565b60006108ed600019846008026108cf565b1980831691505092915050565b600061090683836108dc565b9150826002028217905092915050565b61091f826103eb565b67ffffffffffffffff811115610938576109376104b5565b5b61094282546106d6565b61094d828285610889565b600060209050601f831160018114610980576000841561096e578287015190505b61097885826108fa565b8655506109e0565b601f19841661098e8661076a565b60005b828110156109b657848901518255600182019150602085019450602081019050610991565b868310156109d357848901516109cf601f8916826108dc565b8355505b6001600288020188555050505b505050505050565b600081905092915050565b60006109fe826103eb565b610a0881856109e8565b9350610a18818560208601610407565b80840191505092915050565b6000610a3082846109f3565b91508190509291505056fea264697066735822122029ae94954c52710891568beb47a9d124ab77057d7d79c5d336c78306debc61ea64736f6c63430008130033",
					"opcodes": "PUSH1 0x80 PUSH1 0x40 MSTORE CALLVALUE DUP1 ISZERO PUSH2 0x10 JUMPI PUSH1 0x0 DUP1 REVERT JUMPDEST POP PUSH2 0xA71 DUP1 PUSH2 0x20 PUSH1 0x0 CODECOPY PUSH1 0x0 RETURN INVALID PUSH1 0x80 PUSH1 0x40 MSTORE CALLVALUE DUP1 ISZERO PUSH2 0x10 JUMPI PUSH1 0x0 DUP1 REVERT JUMPDEST POP PUSH1 0x4 CALLDATASIZE LT PUSH2 0x7D JUMPI PUSH1 0x0 CALLDATALOAD PUSH1 0xE0 SHR DUP1 PUSH4 0x6057361D GT PUSH2 0x5B JUMPI DUP1 PUSH4 0x6057361D EQ PUSH2 0xEF JUMPI DUP1 PUSH4 0x6F760F41 EQ PUSH2 0x10B JUMPI DUP1 PUSH4 0xB2AC62EF EQ PUSH2 0x127 JUMPI DUP1 PUSH4 0xEF5FB05B EQ PUSH2 0x157 JUMPI PUSH2 0x7D JUMP JUMPDEST DUP1 PUSH4 0x7B616F0 EQ PUSH2 0x82 JUMPI DUP1 PUSH4 0x2E64CEC1 EQ PUSH2 0xA0 JUMPI DUP1 PUSH4 0x2EBCE631 EQ PUSH2 0xBE JUMPI JUMPDEST PUSH1 0x0 DUP1 REVERT JUMPDEST PUSH2 0x8A PUSH2 0x175 JUMP JUMPDEST PUSH1 0x40 MLOAD PUSH2 0x97 SWAP2 SWAP1 PUSH2 0x363 JUMP JUMPDEST PUSH1 0x40 MLOAD DUP1 SWAP2 SUB SWAP1 RETURN JUMPDEST PUSH2 0xA8 PUSH2 0x17B JUMP JUMPDEST PUSH1 0x40 MLOAD PUSH2 0xB5 SWAP2 SWAP1 PUSH2 0x363 JUMP JUMPDEST PUSH1 0x40 MLOAD DUP1 SWAP2 SUB SWAP1 RETURN JUMPDEST PUSH2 0xD8 PUSH1 0x4 DUP1 CALLDATASIZE SUB DUP2 ADD SWAP1 PUSH2 0xD3 SWAP2 SWAP1 PUSH2 0x3BE JUMP JUMPDEST PUSH2 0x184 JUMP JUMPDEST PUSH1 0x40 MLOAD PUSH2 0xE6 SWAP3 SWAP2 SWAP1 PUSH2 0x47B JUMP JUMPDEST PUSH1 0x40 MLOAD DUP1 SWAP2 SUB SWAP1 RETURN JUMPDEST PUSH2 0x109 PUSH1 0x4 DUP1 CALLDATASIZE SUB DUP2 ADD SWAP1 PUSH2 0x104 SWAP2 SWAP1 PUSH2 0x3BE JUMP JUMPDEST PUSH2 0x240 JUMP JUMPDEST STOP JUMPDEST PUSH2 0x125 PUSH1 0x4 DUP1 CALLDATASIZE SUB DUP2 ADD SWAP1 PUSH2 0x120 SWAP2 SWAP1 PUSH2 0x5E0 JUMP JUMPDEST PUSH2 0x256 JUMP JUMPDEST STOP JUMPDEST PUSH2 0x141 PUSH1 0x4 DUP1 CALLDATASIZE SUB DUP2 ADD SWAP1 PUSH2 0x13C SWAP2 SWAP1 PUSH2 0x63C JUMP JUMPDEST PUSH2 0x2DF JUMP JUMPDEST PUSH1 0x40 MLOAD PUSH2 0x14E SWAP2 SWAP1 PUSH2 0x363 JUMP JUMPDEST PUSH1 0x40 MLOAD DUP1 SWAP2 SUB SWAP1 RETURN JUMPDEST PUSH2 0x15F PUSH2 0x30D JUMP JUMPDEST PUSH1 0x40 MLOAD PUSH2 0x16C SWAP2 SWAP1 PUSH2 0x685 JUMP JUMPDEST PUSH1 0x40 MLOAD DUP1 SWAP2 SUB SWAP1 RETURN JUMPDEST PUSH1 0x0 SLOAD DUP2 JUMP JUMPDEST PUSH1 0x0 DUP1 SLOAD SWAP1 POP SWAP1 JUMP JUMPDEST PUSH1 0x1 DUP2 DUP2 SLOAD DUP2 LT PUSH2 0x194 JUMPI PUSH1 0x0 DUP1 REVERT JUMPDEST SWAP1 PUSH1 0x0 MSTORE PUSH1 0x20 PUSH1 0x0 KECCAK256 SWAP1 PUSH1 0x2 MUL ADD PUSH1 0x0 SWAP2 POP SWAP1 POP DUP1 PUSH1 0x0 ADD SLOAD SWAP1 DUP1 PUSH1 0x1 ADD DUP1 SLOAD PUSH2 0x1BD SWAP1 PUSH2 0x6D6 JUMP JUMPDEST DUP1 PUSH1 0x1F ADD PUSH1 0x20 DUP1 SWAP2 DIV MUL PUSH1 0x20 ADD PUSH1 0x40 MLOAD SWAP1 DUP2 ADD PUSH1 0x40 MSTORE DUP1 SWAP3 SWAP2 SWAP1 DUP2 DUP2 MSTORE PUSH1 0x20 ADD DUP3 DUP1 SLOAD PUSH2 0x1E9 SWAP1 PUSH2 0x6D6 JUMP JUMPDEST DUP1 ISZERO PUSH2 0x236 JUMPI DUP1 PUSH1 0x1F LT PUSH2 0x20B JUMPI PUSH2 0x100 DUP1 DUP4 SLOAD DIV MUL DUP4 MSTORE SWAP2 PUSH1 0x20 ADD SWAP2 PUSH2 0x236 JUMP JUMPDEST DUP3 ADD SWAP2 SWAP1 PUSH1 0x0 MSTORE PUSH1 0x20 PUSH1 0x0 KECCAK256 SWAP1 JUMPDEST DUP2 SLOAD DUP2 MSTORE SWAP1 PUSH1 0x1 ADD SWAP1 PUSH1 0x20 ADD DUP1 DUP4 GT PUSH2 0x219 JUMPI DUP3 SWAP1 SUB PUSH1 0x1F AND DUP3 ADD SWAP2 JUMPDEST POP POP POP POP POP SWAP1 POP DUP3 JUMP JUMPDEST PUSH1 0x5 DUP2 PUSH2 0x24D SWAP2 SWAP1 PUSH2 0x736 JUMP JUMPDEST PUSH1 0x0 DUP2 SWAP1 SSTORE POP POP JUMP JUMPDEST PUSH1 0x1 PUSH1 0x40 MLOAD DUP1 PUSH1 0x40 ADD PUSH1 0x40 MSTORE DUP1 DUP4 DUP2 MSTORE PUSH1 0x20 ADD DUP5 DUP2 MSTORE POP SWAP1 DUP1 PUSH1 0x1 DUP2 SLOAD ADD DUP1 DUP3 SSTORE DUP1 SWAP2 POP POP PUSH1 0x1 SWAP1 SUB SWAP1 PUSH1 0x0 MSTORE PUSH1 0x20 PUSH1 0x0 KECCAK256 SWAP1 PUSH1 0x2 MUL ADD PUSH1 0x0 SWAP1 SWAP2 SWAP1 SWAP2 SWAP1 SWAP2 POP PUSH1 0x0 DUP3 ADD MLOAD DUP2 PUSH1 0x0 ADD SSTORE PUSH1 0x20 DUP3 ADD MLOAD DUP2 PUSH1 0x1 ADD SWAP1 DUP2 PUSH2 0x2B5 SWAP2 SWAP1 PUSH2 0x916 JUMP JUMPDEST POP POP POP DUP1 PUSH1 0x2 DUP4 PUSH1 0x40 MLOAD PUSH2 0x2C9 SWAP2 SWAP1 PUSH2 0xA24 JUMP JUMPDEST SWAP1 DUP2 MSTORE PUSH1 0x20 ADD PUSH1 0x40 MLOAD DUP1 SWAP2 SUB SWAP1 KECCAK256 DUP2 SWAP1 SSTORE POP POP POP JUMP JUMPDEST PUSH1 0x2 DUP2 DUP1 MLOAD PUSH1 0x20 DUP2 ADD DUP3 ADD DUP1 MLOAD DUP5 DUP3 MSTORE PUSH1 0x20 DUP4 ADD PUSH1 0x20 DUP6 ADD KECCAK256 DUP2 DUP4 MSTORE DUP1 SWAP6 POP POP POP POP POP POP PUSH1 0x0 SWAP2 POP SWAP1 POP SLOAD DUP2 JUMP JUMPDEST PUSH1 0x60 PUSH1 0x40 MLOAD DUP1 PUSH1 0x40 ADD PUSH1 0x40 MSTORE DUP1 PUSH1 0x5 DUP2 MSTORE PUSH1 0x20 ADD PUSH32 0x48656C6C6F000000000000000000000000000000000000000000000000000000 DUP2 MSTORE POP SWAP1 POP SWAP1 JUMP JUMPDEST PUSH1 0x0 DUP2 SWAP1 POP SWAP2 SWAP1 POP JUMP JUMPDEST PUSH2 0x35D DUP2 PUSH2 0x34A JUMP JUMPDEST DUP3 MSTORE POP POP JUMP JUMPDEST PUSH1 0x0 PUSH1 0x20 DUP3 ADD SWAP1 POP PUSH2 0x378 PUSH1 0x0 DUP4 ADD DUP5 PUSH2 0x354 JUMP JUMPDEST SWAP3 SWAP2 POP POP JUMP JUMPDEST PUSH1 0x0 PUSH1 0x40 MLOAD SWAP1 POP SWAP1 JUMP JUMPDEST PUSH1 0x0 DUP1 REVERT JUMPDEST PUSH1 0x0 DUP1 REVERT JUMPDEST PUSH2 0x39B DUP2 PUSH2 0x34A JUMP JUMPDEST DUP2 EQ PUSH2 0x3A6 JUMPI PUSH1 0x0 DUP1 REVERT JUMPDEST POP JUMP JUMPDEST PUSH1 0x0 DUP2 CALLDATALOAD SWAP1 POP PUSH2 0x3B8 DUP2 PUSH2 0x392 JUMP JUMPDEST SWAP3 SWAP2 POP POP JUMP JUMPDEST PUSH1 0x0 PUSH1 0x20 DUP3 DUP5 SUB SLT ISZERO PUSH2 0x3D4 JUMPI PUSH2 0x3D3 PUSH2 0x388 JUMP JUMPDEST JUMPDEST PUSH1 0x0 PUSH2 0x3E2 DUP5 DUP3 DUP6 ADD PUSH2 0x3A9 JUMP JUMPDEST SWAP2 POP POP SWAP3 SWAP2 POP POP JUMP JUMPDEST PUSH1 0x0 DUP2 MLOAD SWAP1 POP SWAP2 SWAP1 POP JUMP JUMPDEST PUSH1 0x0 DUP3 DUP3 MSTORE PUSH1 0x20 DUP3 ADD SWAP1 POP SWAP3 SWAP2 POP POP JUMP JUMPDEST PUSH1 0x0 JUMPDEST DUP4 DUP2 LT ISZERO PUSH2 0x425 JUMPI DUP1 DUP3 ADD MLOAD DUP2 DUP5 ADD MSTORE PUSH1 0x20 DUP2 ADD SWAP1 POP PUSH2 0x40A JUMP JUMPDEST PUSH1 0x0 DUP5 DUP5 ADD MSTORE POP POP POP POP JUMP JUMPDEST PUSH1 0x0 PUSH1 0x1F NOT PUSH1 0x1F DUP4 ADD AND SWAP1 POP SWAP2 SWAP1 POP JUMP JUMPDEST PUSH1 0x0 PUSH2 0x44D DUP3 PUSH2 0x3EB JUMP JUMPDEST PUSH2 0x457 DUP2 DUP6 PUSH2 0x3F6 JUMP JUMPDEST SWAP4 POP PUSH2 0x467 DUP2 DUP6 PUSH1 0x20 DUP7 ADD PUSH2 0x407 JUMP JUMPDEST PUSH2 0x470 DUP2 PUSH2 0x431 JUMP JUMPDEST DUP5 ADD SWAP2 POP POP SWAP3 SWAP2 POP POP JUMP JUMPDEST PUSH1 0x0 PUSH1 0x40 DUP3 ADD SWAP1 POP PUSH2 0x490 PUSH1 0x0 DUP4 ADD DUP6 PUSH2 0x354 JUMP JUMPDEST DUP2 DUP2 SUB PUSH1 0x20 DUP4 ADD MSTORE PUSH2 0x4A2 DUP2 DUP5 PUSH2 0x442 JUMP JUMPDEST SWAP1 POP SWAP4 SWAP3 POP POP POP JUMP JUMPDEST PUSH1 0x0 DUP1 REVERT JUMPDEST PUSH1 0x0 DUP1 REVERT JUMPDEST PUSH32 0x4E487B7100000000000000000000000000000000000000000000000000000000 PUSH1 0x0 MSTORE PUSH1 0x41 PUSH1 0x4 MSTORE PUSH1 0x24 PUSH1 0x0 REVERT JUMPDEST PUSH2 0x4ED DUP3 PUSH2 0x431 JUMP JUMPDEST DUP2 ADD DUP2 DUP2 LT PUSH8 0xFFFFFFFFFFFFFFFF DUP3 GT OR ISZERO PUSH2 0x50C JUMPI PUSH2 0x50B PUSH2 0x4B5 JUMP JUMPDEST JUMPDEST DUP1 PUSH1 0x40 MSTORE POP POP POP JUMP JUMPDEST PUSH1 0x0 PUSH2 0x51F PUSH2 0x37E JUMP JUMPDEST SWAP1 POP PUSH2 0x52B DUP3 DUP3 PUSH2 0x4E4 JUMP JUMPDEST SWAP2 SWAP1 POP JUMP JUMPDEST PUSH1 0x0 PUSH8 0xFFFFFFFFFFFFFFFF DUP3 GT ISZERO PUSH2 0x54B JUMPI PUSH2 0x54A PUSH2 0x4B5 JUMP JUMPDEST JUMPDEST PUSH2 0x554 DUP3 PUSH2 0x431 JUMP JUMPDEST SWAP1 POP PUSH1 0x20 DUP2 ADD SWAP1 POP SWAP2 SWAP1 POP JUMP JUMPDEST DUP3 DUP2 DUP4 CALLDATACOPY PUSH1 0x0 DUP4 DUP4 ADD MSTORE POP POP POP JUMP JUMPDEST PUSH1 0x0 PUSH2 0x583 PUSH2 0x57E DUP5 PUSH2 0x530 JUMP JUMPDEST PUSH2 0x515 JUMP JUMPDEST SWAP1 POP DUP3 DUP2 MSTORE PUSH1 0x20 DUP2 ADD DUP5 DUP5 DUP5 ADD GT ISZERO PUSH2 0x59F JUMPI PUSH2 0x59E PUSH2 0x4B0 JUMP JUMPDEST JUMPDEST PUSH2 0x5AA DUP5 DUP3 DUP6 PUSH2 0x561 JUMP JUMPDEST POP SWAP4 SWAP3 POP POP POP JUMP JUMPDEST PUSH1 0x0 DUP3 PUSH1 0x1F DUP4 ADD SLT PUSH2 0x5C7 JUMPI PUSH2 0x5C6 PUSH2 0x4AB JUMP JUMPDEST JUMPDEST DUP2 CALLDATALOAD PUSH2 0x5D7 DUP5 DUP3 PUSH1 0x20 DUP7 ADD PUSH2 0x570 JUMP JUMPDEST SWAP2 POP POP SWAP3 SWAP2 POP POP JUMP JUMPDEST PUSH1 0x0 DUP1 PUSH1 0x40 DUP4 DUP6 SUB SLT ISZERO PUSH2 0x5F7 JUMPI PUSH2 0x5F6 PUSH2 0x388 JUMP JUMPDEST JUMPDEST PUSH1 0x0 DUP4 ADD CALLDATALOAD PUSH8 0xFFFFFFFFFFFFFFFF DUP2 GT ISZERO PUSH2 0x615 JUMPI PUSH2 0x614 PUSH2 0x38D JUMP JUMPDEST JUMPDEST PUSH2 0x621 DUP6 DUP3 DUP7 ADD PUSH2 0x5B2 JUMP JUMPDEST SWAP3 POP POP PUSH1 0x20 PUSH2 0x632 DUP6 DUP3 DUP7 ADD PUSH2 0x3A9 JUMP JUMPDEST SWAP2 POP POP SWAP3 POP SWAP3 SWAP1 POP JUMP JUMPDEST PUSH1 0x0 PUSH1 0x20 DUP3 DUP5 SUB SLT ISZERO PUSH2 0x652 JUMPI PUSH2 0x651 PUSH2 0x388 JUMP JUMPDEST JUMPDEST PUSH1 0x0 DUP3 ADD CALLDATALOAD PUSH8 0xFFFFFFFFFFFFFFFF DUP2 GT ISZERO PUSH2 0x670 JUMPI PUSH2 0x66F PUSH2 0x38D JUMP JUMPDEST JUMPDEST PUSH2 0x67C DUP5 DUP3 DUP6 ADD PUSH2 0x5B2 JUMP JUMPDEST SWAP2 POP POP SWAP3 SWAP2 POP POP JUMP JUMPDEST PUSH1 0x0 PUSH1 0x20 DUP3 ADD SWAP1 POP DUP2 DUP2 SUB PUSH1 0x0 DUP4 ADD MSTORE PUSH2 0x69F DUP2 DUP5 PUSH2 0x442 JUMP JUMPDEST SWAP1 POP SWAP3 SWAP2 POP POP JUMP JUMPDEST PUSH32 0x4E487B7100000000000000000000000000000000000000000000000000000000 PUSH1 0x0 MSTORE PUSH1 0x22 PUSH1 0x4 MSTORE PUSH1 0x24 PUSH1 0x0 REVERT JUMPDEST PUSH1 0x0 PUSH1 0x2 DUP3 DIV SWAP1 POP PUSH1 0x1 DUP3 AND DUP1 PUSH2 0x6EE JUMPI PUSH1 0x7F DUP3 AND SWAP2 POP JUMPDEST PUSH1 0x20 DUP3 LT DUP2 SUB PUSH2 0x701 JUMPI PUSH2 0x700 PUSH2 0x6A7 JUMP JUMPDEST JUMPDEST POP SWAP2 SWAP1 POP JUMP JUMPDEST PUSH32 0x4E487B7100000000000000000000000000000000000000000000000000000000 PUSH1 0x0 MSTORE PUSH1 0x11 PUSH1 0x4 MSTORE PUSH1 0x24 PUSH1 0x0 REVERT JUMPDEST PUSH1 0x0 PUSH2 0x741 DUP3 PUSH2 0x34A JUMP JUMPDEST SWAP2 POP PUSH2 0x74C DUP4 PUSH2 0x34A JUMP JUMPDEST SWAP3 POP DUP3 DUP3 ADD SWAP1 POP DUP1 DUP3 GT ISZERO PUSH2 0x764 JUMPI PUSH2 0x763 PUSH2 0x707 JUMP JUMPDEST JUMPDEST SWAP3 SWAP2 POP POP JUMP JUMPDEST PUSH1 0x0 DUP2 SWAP1 POP DUP2 PUSH1 0x0 MSTORE PUSH1 0x20 PUSH1 0x0 KECCAK256 SWAP1 POP SWAP2 SWAP1 POP JUMP JUMPDEST PUSH1 0x0 PUSH1 0x20 PUSH1 0x1F DUP4 ADD DIV SWAP1 POP SWAP2 SWAP1 POP JUMP JUMPDEST PUSH1 0x0 DUP3 DUP3 SHL SWAP1 POP SWAP3 SWAP2 POP POP JUMP JUMPDEST PUSH1 0x0 PUSH1 0x8 DUP4 MUL PUSH2 0x7CC PUSH32 0xFFFFFFFFFFFFFFFFFFFFFFFFFFFFFFFFFFFFFFFFFFFFFFFFFFFFFFFFFFFFFFFF DUP3 PUSH2 0x78F JUMP JUMPDEST PUSH2 0x7D6 DUP7 DUP4 PUSH2 0x78F JUMP JUMPDEST SWAP6 POP DUP1 NOT DUP5 AND SWAP4 POP DUP1 DUP7 AND DUP5 OR SWAP3 POP POP POP SWAP4 SWAP3 POP POP POP JUMP JUMPDEST PUSH1 0x0 DUP2 SWAP1 POP SWAP2 SWAP1 POP JUMP JUMPDEST PUSH1 0x0 PUSH2 0x813 PUSH2 0x80E PUSH2 0x809 DUP5 PUSH2 0x34A JUMP JUMPDEST PUSH2 0x7EE JUMP JUMPDEST PUSH2 0x34A JUMP JUMPDEST SWAP1 POP SWAP2 SWAP1 POP JUMP JUMPDEST PUSH1 0x0 DUP2 SWAP1 POP SWAP2 SWAP1 POP JUMP JUMPDEST PUSH2 0x82D DUP4 PUSH2 0x7F8 JUMP JUMPDEST PUSH2 0x841 PUSH2 0x839 DUP3 PUSH2 0x81A JUMP JUMPDEST DUP5 DUP5 SLOAD PUSH2 0x79C JUMP JUMPDEST DUP3 SSTORE POP POP POP POP JUMP JUMPDEST PUSH1 0x0 SWAP1 JUMP JUMPDEST PUSH2 0x856 PUSH2 0x849 JUMP JUMPDEST PUSH2 0x861 DUP2 DUP5 DUP5 PUSH2 0x824 JUMP JUMPDEST POP POP POP JUMP JUMPDEST JUMPDEST DUP2 DUP2 LT ISZERO PUSH2 0x885 JUMPI PUSH2 0x87A PUSH1 0x0 DUP3 PUSH2 0x84E JUMP JUMPDEST PUSH1 0x1 DUP2 ADD SWAP1 POP PUSH2 0x867 JUMP JUMPDEST POP POP JUMP JUMPDEST PUSH1 0x1F DUP3 GT ISZERO PUSH2 0x8CA JUMPI PUSH2 0x89B DUP2 PUSH2 0x76A JUMP JUMPDEST PUSH2 0x8A4 DUP5 PUSH2 0x77F JUMP JUMPDEST DUP2 ADD PUSH1 0x20 DUP6 LT ISZERO PUSH2 0x8B3 JUMPI DUP2 SWAP1 POP JUMPDEST PUSH2 0x8C7 PUSH2 0x8BF DUP6 PUSH2 0x77F JUMP JUMPDEST DUP4 ADD DUP3 PUSH2 0x866 JUMP JUMPDEST POP POP JUMPDEST POP POP POP JUMP JUMPDEST PUSH1 0x0 DUP3 DUP3 SHR SWAP1 POP SWAP3 SWAP2 POP POP JUMP JUMPDEST PUSH1 0x0 PUSH2 0x8ED PUSH1 0x0 NOT DUP5 PUSH1 0x8 MUL PUSH2 0x8CF JUMP JUMPDEST NOT DUP1 DUP4 AND SWAP2 POP POP SWAP3 SWAP2 POP POP JUMP JUMPDEST PUSH1 0x0 PUSH2 0x906 DUP4 DUP4 PUSH2 0x8DC JUMP JUMPDEST SWAP2 POP DUP3 PUSH1 0x2 MUL DUP3 OR SWAP1 POP SWAP3 SWAP2 POP POP JUMP JUMPDEST PUSH2 0x91F DUP3 PUSH2 0x3EB JUMP JUMPDEST PUSH8 0xFFFFFFFFFFFFFFFF DUP2 GT ISZERO PUSH2 0x938 JUMPI PUSH2 0x937 PUSH2 0x4B5 JUMP JUMPDEST JUMPDEST PUSH2 0x942 DUP3 SLOAD PUSH2 0x6D6 JUMP JUMPDEST PUSH2 0x94D DUP3 DUP3 DUP6 PUSH2 0x889 JUMP JUMPDEST PUSH1 0x0 PUSH1 0x20 SWAP1 POP PUSH1 0x1F DUP4 GT PUSH1 0x1 DUP2 EQ PUSH2 0x980 JUMPI PUSH1 0x0 DUP5 ISZERO PUSH2 0x96E JUMPI DUP3 DUP8 ADD MLOAD SWAP1 POP JUMPDEST PUSH2 0x978 DUP6 DUP3 PUSH2 0x8FA JUMP JUMPDEST DUP7 SSTORE POP PUSH2 0x9E0 JUMP JUMPDEST PUSH1 0x1F NOT DUP5 AND PUSH2 0x98E DUP7 PUSH2 0x76A JUMP JUMPDEST PUSH1 0x0 JUMPDEST DUP3 DUP2 LT ISZERO PUSH2 0x9B6 JUMPI DUP5 DUP10 ADD MLOAD DUP3 SSTORE PUSH1 0x1 DUP3 ADD SWAP2 POP PUSH1 0x20 DUP6 ADD SWAP5 POP PUSH1 0x20 DUP2 ADD SWAP1 POP PUSH2 0x991 JUMP JUMPDEST DUP7 DUP4 LT ISZERO PUSH2 0x9D3 JUMPI DUP5 DUP10 ADD MLOAD PUSH2 0x9CF PUSH1 0x1F DUP10 AND DUP3 PUSH2 0x8DC JUMP JUMPDEST DUP4 SSTORE POP JUMPDEST PUSH1 0x1 PUSH1 0x2 DUP9 MUL ADD DUP9 SSTORE POP POP POP JUMPDEST POP POP POP POP POP POP JUMP JUMPDEST PUSH1 0x0 DUP2 SWAP1 POP SWAP3 SWAP2 POP POP JUMP JUMPDEST PUSH1 0x0 PUSH2 0x9FE DUP3 PUSH2 0x3EB JUMP JUMPDEST PUSH2 0xA08 DUP2 DUP6 PUSH2 0x9E8 JUMP JUMPDEST SWAP4 POP PUSH2 0xA18 DUP2 DUP6 PUSH1 0x20 DUP7 ADD PUSH2 0x407 JUMP JUMPDEST DUP1 DUP5 ADD SWAP2 POP POP SWAP3 SWAP2 POP POP JUMP JUMPDEST PUSH1 0x0 PUSH2 0xA30 DUP3 DUP5 PUSH2 0x9F3 JUMP JUMPDEST SWAP2 POP DUP2 SWAP1 POP SWAP3 SWAP2 POP POP JUMP INVALID LOG2 PUSH5 0x6970667358 0x22 SLT KECCAK256 0x29 0xAE SWAP5 SWAP6 0x4C MSTORE PUSH18 0x891568BEB47A9D124AB77057D7D79C5D336 0xC7 DUP4 MOD 0xDE 0xBC PUSH2 0xEA64 PUSH20 0x6F6C634300081300330000000000000000000000 "
				},
				"gasEstimates": {
					"creation": {
						"codeDepositCost": "534600",
						"executionCost": "568",
						"totalCost": "535168"
					},
					"external": {
						"addPerson(string,uint256)": "infinite",
						"listOfPeople(uint256)": "infinite",
						"myFavourtieNumber()": "2430",
						"nameToFavouriteNumber(string)": "infinite",
						"retrieve()": "2460",
						"sayHello()": "infinite",
						"store(uint256)": "infinite"
					}
				},
				"methodIdentifiers": {
					"addPerson(string,uint256)": "6f760f41",
					"listOfPeople(uint256)": "2ebce631",
					"myFavourtieNumber()": "07b616f0",
					"nameToFavouriteNumber(string)": "b2ac62ef",
					"retrieve()": "2e64cec1",
					"sayHello()": "ef5fb05b",
					"store(uint256)": "6057361d"
				}
			},
			"storageLayout": {
				"storage": [
					{
						"astId": 31,
						"contract": "Part 1/AddFiveStorage.sol:AddFiveStorage",
						"label": "myFavourtieNumber",
						"offset": 0,
						"slot": "0",
						"type": "t_uint256"
					},
					{
						"astId": 40,
						"contract": "Part 1/AddFiveStorage.sol:AddFiveStorage",
						"label": "listOfPeople",
						"offset": 0,
						"slot": "1",
						"type": "t_array(t_struct(Person)36_storage)dyn_storage"
					},
					{
						"astId": 44,
						"contract": "Part 1/AddFiveStorage.sol:AddFiveStorage",
						"label": "nameToFavouriteNumber",
						"offset": 0,
						"slot": "2",
						"type": "t_mapping(t_string_memory_ptr,t_uint256)"
					}
				],
				"types": {
					"t_array(t_struct(Person)36_storage)dyn_storage": {
						"base": "t_struct(Person)36_storage",
						"encoding": "dynamic_array",
						"label": "struct SimpleStorage.Person[]",
						"numberOfBytes": "32"
					},
					"t_mapping(t_string_memory_ptr,t_uint256)": {
						"encoding": "mapping",
						"key": "t_string_memory_ptr",
						"label": "mapping(string => uint256)",
						"numberOfBytes": "32",
						"value": "t_uint256"
					},
					"t_string_memory_ptr": {
						"encoding": "bytes",
						"label": "string",
						"numberOfBytes": "32"
					},
					"t_string_storage": {
						"encoding": "bytes",
						"label": "string",
						"numberOfBytes": "32"
					},
					"t_struct(Person)36_storage": {
						"encoding": "inplace",
						"label": "struct SimpleStorage.Person",
						"members": [
							{
								"astId": 33,
								"contract": "Part 1/AddFiveStorage.sol:AddFiveStorage",
								"label": "favouriteNumber",
								"offset": 0,
								"slot": "0",
								"type": "t_uint256"
							},
							{
								"astId": 35,
								"contract": "Part 1/AddFiveStorage.sol:AddFiveStorage",
								"label": "name",
								"offset": 0,
								"slot": "1",
								"type": "t_string_storage"
							}
						],
						"numberOfBytes": "64"
					},
					"t_uint256": {
						"encoding": "inplace",
						"label": "uint256",
						"numberOfBytes": "32"
					}
				}
			},
			"userdoc": {
				"kind": "user",
				"methods": {},
				"version": 1
			}
		}
	}
}